:020000040002F8
:10700000D8770020E1730200E9730200EB730200FD
:10701000ED730200EF730200F17302000000000044
:10702000000000000000000000000000F3730200F8
:10703000F573020000000000F7730200F97302000C
:1070400079790200FB730200397E0200FB730200B3
:10705000FB730200FB730200F5750200D979020090
:10706000FB730200217E0200FB730200FB7302002F
:10707000FB730200FB730200FB730200FB73020050
:107080005D7E0200C1790200FB730200FB73020007
:10709000FB730200FB7302003D7C0200FB730200E5
:1070A000FB730200FB730200FB730200FB73020020
:1070B000FB730200FB7302000000000000000000F0
:1070C000FB730200FB730200FB730200FB73020000
:1070D000FB730200FB730200FB730200FB730200F0
:1070E000497E0200000000000000000000000000D7
:1070F00000000000FB73020000000000FB730200B0
:10710000000000000000000000000000000000007F
:10711000000000000000000000000000000000006F
:10712000000000000000000000000000000000005F
:10713000000000000000000000000000000000004F
:10714000000000000000000000000000000000003F
:10715000000000000000000000000000000000002F
:10716000000000000000000000000000000000001F
:10717000000000000000000000000000000000000F
:1071800000000000000000000000000000000000FF
:1071900000000000000000000000000000000000EF
:1071A00000000000000000000000000000000000DF
:1071B00000000000000000000000000000000000CF
:1071C00000000000000000000000000000000000BF
:1071D00000000000000000000000000000000000AF
:1071E000000000000000000000000000000000009F
:1071F000000000000000000000000000000000008F
:10720000DFF810D000F0B4F90048004759E8020058
:10721000AFF30080D877002000B583B002900091D2
:10722000019244F2010071466A4601F061F903B02F
:1072300000BD000030B450E8012F93B2C48923444C
:107240008489A34228BF1B1B0489A34202BFBFF34A
:107250002F8F002007E0C3EA020340E80134002C2E
:10726000E9D14FF001000A6030BC704750E8012FAF
:10727000C2EA024240E801210029F7D1704730B448
:1072800050E8022F1FFAA2F3C488A34202BFBFF343
:107290002F8F00200DE0C48923448489A34228BF96
:1072A0001B1BC2EA034340E80234002CE8D14FF034
:1072B00001000A6030BC704750E8022FC2EA224247
:1072C00040E802210029F7D17047034653E8022F16
:1072D000D988B2EB324F4FF0000017BF92B241EAAB
:1072E000014142EA014104E05A68B2EB324F08BF63
:1072F000012043E80212002AE8D1704730B4044666
:1073000054E8000F0D4644E80053002BF8D11560F7
:1073100030BC704730B4044654E8000F40EA010521
:1073200044E80053002BF7D1156030BC704730B4EF
:10733000044654E8000F00EA010544E80053002B1E
:10734000F7D1156030BC704730B4044654E8000FE4
:1073500080EA010544E80053002BF7D1156030BCEA
:10736000704730B4044654E8000F00EB010544E8D0
:107370000053002BF7D1156030BC704730B4044681
:1073800054E8000FA0EB010544E80053002BF7D1AF
:10739000156030BC704770B404464FF0000054E8EC
:1073A000006F0D68AE4207BF44E80023012044E8A7
:1073B00000630E60002B1CBF0020F0E770BC70471C
:1073C00030B4044654E8000F88422CBF451A0546E5
:1073D00044E80053002BF5D1156030BC7047000025
:1073E0000648804706480047FEE7FEE7FEE7FEE75F
:1073F000FEE7FEE7FEE7FEE7FEE7FEE7557C02005C
:10740000017202002DE9F05F0546002092469B467E
:1074100088460646814640241BE0284641464746AA
:10742000224600F02FF853465A46C01A914110D315
:1074300011461846224600F016F82D1A67EB01088F
:107440004F4622460120002100F00DF817EB0009FD
:107450004E41201EA4F10104DFDC484631462A4695
:107460004346BDE8F09F202A04DB203A00FA02F1EF
:10747000002070479140C2F1200320FA03F3194322
:1074800090407047202A04DB203A21FA02F00021C4
:10749000704721FA02F3D040C2F120029140084324
:1074A0001946704700487047C49A0300A0F1410193
:1074B000192900D82030704740EA01039B0703D008
:1074C00009E008C9121F08C0042AFAD203E011F823
:1074D000013B00F8013B521EF9D27047D2B201E0E5
:1074E00000F8012B491EFBD270470022F6E710B5C9
:1074F00013460A4604461946FFF7F0FF204610BD22
:1075000010B5044604E00B7800F8013B03B1491CB8
:10751000521EF8D2204610BD421C10F8011B002953
:10752000FBD1801A704730B504460020034600E0C6
:107530005B1C934203D2E05CCD5C401BF8D030BDB5
:10754000034611F8012B00F8012B002AF9D1184647
:10755000704730B505460020034600E05B1C9342AF
:1075600005D2EC5CC85C201A01D1002CF6D130BDEC
:10757000064C074D06E0E06840F0010394E8070080
:1075800098471034AC42F6D3FFF73EFE30CB0300F1
:1075900050CB030070B58D1810F8014B14F00302A6
:1075A00001D110F8012B231106D110F8013B03E0A3
:1075B00010F8016B01F8016B521EF9D1ABB110F854
:1075C000012B04F00C048A1A0C2C03D0A2EB8412B9
:1075D0009B1C08E010F8014BA2EB0422F8E712F81C
:1075E000014B01F8014B5B1EF9D5A942D4D3002011
:1075F00070BD00002DE9FC4700260020009001909E
:107600004FF480770125002410E0384608F052FE40
:1076100040B100BF25480068284018B1384608F03E
:107620003BFE2E436D00381D87B2641C082CECD342
:107630004FF4BE7008F03EFE50B14FF4BE7008F03B
:107640002BFE46F000466A460221002008F034FD79
:10765000F0B210B3012500241DE005EA0600C0B118
:1076600000BF134850F82400C0F30520814600BF36
:107670000F4850F82400C0F301408246204602F033
:1076800085FE8046B8F1000F02D051464846C047FB
:1076900000BF6D00641C082CDFD306F0004010B161
:1076A00068460EF009FABDE8FC870000046300405C
:1076B0001065004070B505461B48007820F00800B2
:1076C00019490870284604F0E5FD04467CB1A4F58C
:1076D0000641164A52F821301549164A891AC90836
:1076E000032242EA0140224613A109F03DF901E0DC
:1076F00000F03EF90C480078C0F3C0000028F7D035
:107700000948007820F010000749087004F0E8FDEF
:10771000044601E000F02CF903480078C0F30010A3
:107720000028F7D070BD0000484000200C40002029
:1077300050CC030070CB030066696C652064656CF7
:1077400065746520726573756C743A20307825789D
:107750002C2025732E00000070B500241F4804F073
:107760000DFF044600BF254635B100BF1CA2A12174
:107770002846FFF751FD00BF00BF2148007820F0E8
:1077800001001F49087004F0CDFD044600BF2546E6
:1077900035B100BF12A2A6212846FFF73DFD00BF6C
:1077A00000BF01E000F0E4F81548007800F00100A7
:1077B0000028F7D01248007820F010001049087017
:1077C00004F08EFD044601E000F0D2F80C48007889
:1077D000C0F300100028F7D0204670BD95BF02000E
:1077E0002E2E5C2E2E5C2E2E5C557365725F4841EA
:1077F0004C5C48414C5F666C6173682E630000000E
:107800004840002070B586B005460E460020039023
:10781000049005900190029001AB03AA31462846DE
:1078200004F042FE04467CB1A4F50641194A52F820
:1078300021301949194A891AC908032242EA01402C
:10784000224617A109F090F81B48007820F00400A8
:107850001949087003A804F003FE04467CB1A4F59E
:1078600006410C4A52F821300B490C4A891AC908C2
:10787000032242EA0140224610A109F075F801E016
:1078800000F076F80C480078C0F380000028F7D0AC
:1078900006B070BD0C40002050CC030070CB03003C
:1078A00066696E6420726573756C743A2030782551
:1078B000782C2025732E0000484000207265636FED
:1078C00072642064656C65746520726573756C7490
:1078D0003A20307825782C2025732E002DE9FE43A0
:1078E00081460E4617460024164A07CA8DE807004F
:1078F0006D46B04605B9144D414628460AF056FF7C
:10790000044600BF254635B100BF10A21F212846FE
:10791000FFF782FC00BF00BF48460AF005FF04469F
:1079200000BF254635B100BF08A221212846FFF738
:1079300073FC00BF00BF0FB10AF026FF2046BDE870
:10794000FE830000C4930300B89303002E2E5C2E28
:107950002E5C2E2E5C557365725F48414C5C48412D
:107960004C5F7761746368646F672E63000000008A
:1079700010B509F05BFA10BD10B54FF4807007F038
:1079800072FE50B14FF4807007F076FE012007F0D0
:107990007DFE0A480168002088474FF4827007F096
:1079A00062FE50B14FF4827007F066FE022007F0CD
:1079B0006DFE024801680120884710BDA4410020E7
:1079C00010B5034A1068034A1168884710BD0000CB
:1079D000E8410020E4410020FEB54FF4827009F038
:1079E000C9FB002837D04FF4827009F0CDFB6C48FA
:1079F00090F82E0018B16A4890F82F0058B3002074
:107A00008DF8000066484068019065480189ADF82E
:107A10000810C06818B900206149087412E0604875
:107A2000008B5F4948830846C06848600846008B61
:107A300008810020C860084690F82E0010B9002088
:107A400009F0BAFB56480168684688470020544947
:107A500081F82F0000BF524890F82E00002852D025
:107A60004FF4807009F086FB00284CD04FF48070F2
:107A700009F08AFB4A48408B494991F82D10884209
:107A800016DD4748408B464991F82D10401A44496D
:107A900048830A4612890B465B8BD21A0B465B68F9
:107AA00003EB42000A4692F82D1009F04FFB23E049
:107AB0003B48408B3A4991F82D1088420FD1384805
:107AC000C06860B10120364981F82F00002048834A
:107AD0000A4692F82D10D06809F038FB0CE03048C7
:107AE000408B2F4991F82D10884205D101202C4957
:107AF00081F82F00002048834FF4827009F044FB86
:107B0000042009F059FB4FF4887009F033FB70B181
:107B10004FF4887009F038FB0020214908740220D6
:107B20008DF80000084601686846884700BF4FF49A
:107B30008A7009F01FFB38B14FF48A7009F024FBFA
:107B40000020174908742AE01548456924E0B5FA71
:107B500085F64FF00040F0408543B00000F58C748E
:107B6000204609F007FBB8B1204609F00DFB0120C3
:107B70008DF80000A4F58C70C0F3C7008DF80400E8
:107B8000A4F58C70012121EA90018DF805100448BC
:107B900001686846884700BF002DD8D100BFFEBDF0
:107BA000544C002010B500F079F910BD2DE9F047D4
:107BB000074688461646C24607EB47011B4800EBBE
:107BC000C109D9F8140020B1012811D0022826D10A
:107BD0001EE0484600F09AF90546B54201D200245D
:107BE00005E0344632465146484600F0D6F918E0E2
:107BF000484600F08BF90546B54201D2284600E020
:107C00003046044622465146484600F0C6F908E090
:107C100032465146484600F087F9044601E0002408
:107C200000BF00BF2046BDE8F08700005855002087
:107C300010B50446204609F02FF910BD10B509F023
:107C400013FD10BD01480249086070470090D00341
:107C5000BC42002010B507F0FBF940B10020684994
:107C600008604FF08041C1F810016649086007F0D4
:107C700009FA002855D064480068644908606248E1
:107C8000001D0068091D08605F4808300068091D74
:107C900008605D480C300068091D08605A481030C3
:107CA0000068091D0860584814300068091D086004
:107CB00055481830006855492031086052481C303A
:107CC0000068091D0860504820300068091D0860E0
:107CD0004D4824300068091D08604B482830006872
:107CE000091D086048482C300068091D0860464896
:107CF00030300068454940310860434834300068FE
:107D0000091D0860404838300068091D08603E4879
:107D10003C300068091D08603B4840300068091D80
:107D2000086007F061F940B13948006800F00100CF
:107D300018B16FF00100364908603648006840F419
:107D400070003449086000BF00BF00BFBFF34F8F11
:107D500000BF00BF00BF00BF00BF00BFBFF36F8FF9
:107D600000BF00BF00BF00BF07F058F920B12A488C
:107D7000006824492031086000BF2748083800689F
:107D800000F0004028B92448001F006800F00040BF
:107D900090B301200AF084FE12201F4908390860C0
:107DA0000AF088FE12214FF01020C0F804120AF0E9
:107DB00081FE00200AF074FE00BF00BF00BF00BFBC
:107DC00000BFBFF34F8F00BF00BF00BF11487C381A
:107DD000006800F4E06011490843001D0D497C393A
:107DE000086000BF00BF00BFBFF34F8F00BF00BFE0
:107DF00000BF00BF00BFFDE7FFE7FFF723FF10BD97
:107E00000C010040380500400404001020C500406B
:107E10000004004088ED00E0081200100000FA05A0
:107E200010B504220249034806F0FBF810BD00001B
:107E3000844C00200090004010B50249086880473B
:107E400010BD0000AC41002010B50249024810F0FE
:107E5000ABFC10BD304C00200080024008B500BFD4
:107E60004FF480700B49405808B1012000E0002019
:107E700078B109480068804700BF00204FF4807146
:107E8000044A8850084611464058009000BF00BF81
:107E900000BF08BD00000140B841002010B5124CE1
:107EA00002202061606111A0A0611349E1614FF4DB
:107EB000007121620021A1626162E1620BA0A064F5
:107EC0000E49E164102121650021A1656165E1652C
:107ED0000BA1E01DFFF734FB0AA12046FFF730FBA2
:107EE0002020A07110BD0000405500205465726D27
:107EF000696E616C00000000B8550020B857002082
:107F000052545400534547474552000010B50146AE
:107F10000A69CB689A4204D88C68641EE41AA018D7
:107F200001E0D41A601E10BD2DE9F04704468946D1
:107F300017464FF0000AE56800BFD4F81080A84546
:107F400003D9A8EB0500461E04E0A5EB0800401C81
:107F5000A1680E1AA068401BB04201D9304601E06A
:107F6000A068401B0646BE4201D2304600E03846BB
:107F700006466168481932464946FFF79DFAB24401
:107F8000B144BF1B3544A068A84200D10025E5607C
:107F9000002FD2D15046BDE8F0872DE9F0470446C6
:107FA00089461546E668A068871BAF4208D9616814
:107FB00088192A464946FFF77FFA7019E06010E0F9
:107FC000B8466168881942464946FFF775FAA5EB3D
:107FD000070809EB070142466068FFF76DFAC4F82D
:107FE0000C80BDE8F08702E008C8121F08C1002A13
:107FF000FAD170477047002001E001C1121F002A2A
:10800000FBD170470146202908DA012088400A4A3E
:10801000104008B1012070470020FCE7402909DA30
:10802000A1F12000012202FA00F008B10120F2E7DC
:108030000020F0E70120EEE7FC06FFBD00BFEFF3F4
:108040001081084672B67047F8B505460E46D6B997
:10805000694628460CF0F2FB044643F202018C42CA
:108060000AD000BF274637B100BF3B4AB22138468D
:10807000FFF7D2F800BF00BF9DF80000C0F340003A
:1080800000B1F8BD00BF002128460CF0E9FB044612
:10809000002C5ED0112C5CD00D2C21D12F49304A00
:1080A000891AC908022242EA01402A462D4908F0ED
:1080B0004FFC1321284676DF0446002C49D0204689
:1080C00009F0E2FB07462549254A891AC908022218
:1080D00042EA01402B463A4623A108F045FC38E02D
:1080E0000B2C0BD11D491E4A891AC908022242EAEB
:1080F00001402A462A4908F02BFC2AE043F20200FC
:1081000084420BD11549164A891AC908022242EA4B
:1081100001402A46234908F01BFC1AE0204609F0DA
:10812000B3FB07460D490E4A891AC908012242EAE3
:1081300001402B463A461CA108F016FC00BF27461A
:1081400037B100BF044AE1213846FFF765F800BFA8
:1081500000BF00BF95E7000094BE0300A8CB03005A
:1081600070CB0300C8BC030073645F626C655F671B
:1081700061705F646973636F6E6E65637428292034
:1081800072657475726E6564202573206F6E20634E
:108190006F6E6E5F68616E646C652025642E0000F2
:1081A00088BD03003CBD0300417373657274696E42
:1081B000672E20706D5F636F6E6E5F73656375729F
:1081C0006528292072657475726E65642025732098
:1081D0006F6E20636F6E6E5F68616E646C652025E4
:1081E000642E000031B50025002406E021466846D3
:1081F00007F00FF800B16D1C641C142CF6D3284650
:1082000038BD70B505460C4605B10CB9002070BDEF
:10821000287840082178B0EB510F01D00020F6E714
:108220000622611C681CFFF77EF908B90120EEE701
:108230000020ECE7014601F0030008B90120704777
:108240000020FCE7024650680068401E084008B95C
:10825000012070470020FCE710B50346D86888422B
:1082600006D88818401E1C69A04201D8012010BD04
:108270000020FCE710B504466CB10848C068A04275
:1082800009D806480069A04205D3204605F0A5FF9D
:1082900008B1012010BD0020FCE70000C042002012
:1082A00010B501220221002001F09EFE044600BF0D
:1082B0001CB1072C01D0204610BD00BF07220221AF
:1082C000012001F091FE044600BF1CB1072C01D033
:1082D0002046F1E700BF0A220021084601F084FE93
:1082E000044600BF1CB1072C01D02046E4E700BFC4
:1082F0000020E1E730B5A5B03C2116A8FFF7F5F85E
:1083000002208DF8580001208DF85A0006208DF8C3
:108310005B000120ADF868002C491B912C48021D20
:10832000016816A800F01CFE044600BF25463DB1BA
:1083300000BF28A240F25D312846FEF76DFF00BF66
:1083400000BF3C2107A8FFF7D0F80120ADF82C00B2
:108350001E490C911E4800F10C02816807A800F02C
:10836000FFFD044600BF25463DB100BF19A240F203
:1083700065312846FEF750FF00BF00BF182101A855
:10838000FFF7B3F801208DF80400002002904FF4AD
:10839000C86003900020ADF810008DF8180001208F
:1083A0008DF8190001AA0A49124872DF044600BF7D
:1083B00025463DB100BF07A240F272312846FEF7C4
:1083C0002BFF00BF00BF25B030BD0000DE3E002007
:1083D0007C3E00202E2E5C2E2E5C2E2E5C5573656E
:1083E000725F4D6F64656C5C6D6F64656C5F626C31
:1083F000652E6300783E002070B501210D4800789D
:1084000073DF044600BF25463DB100BF0AA240F21B
:108410009F312846FEF700FF00BF00BF0E490F4AFC
:10842000891AC908032242EA01400DA108F086FA20
:1084300070BD0000783E00202E2E5C2E2E5C2E2E6D
:108440005C557365725F4D6F64656C5C6D6F6465E0
:108450006C5F626C652E630050CC030070CB030030
:108460004164766572746973696E672073746172B2
:10847000742E000070B58CB004460D4616460020E0
:1084800005E0C0F10F01615C0DF80010401C1028E0
:10849000F7D30D2104A8FFF728F8002005E02A5C97
:1084A000C0F10F0304A9CA54401C0328F7D368463F
:1084B00046DF002005E0C0F10F0208A9895C3154B5
:1084C000401C0328F7D30CB070BD000010B5044663
:1084D00002480178204600F0DFFE10BD7441002004
:1084E00010B5024801F044FE10BD0000203F0020FE
:1084F0002DE9FE4307460E46144672B600BF08F04B
:1085000045FB00BF00BF08F017F80028FBD100BFF3
:1085100000BF012F0CD06FF48050384498B1B0F5F3
:10852000405F2CD06FF440510844002847D115E03B
:108530003149324A891AC908012242EA014030A170
:1085400008F0FCF947E02C492C4A891AC908012295
:1085500042EA014032A108F0F1F93CE02546264903
:10856000DFF898C0A1EB0C01C9084FF0010C4CEAF0
:10857000014034A1D5E9003208F0F6F92BE0254698
:10858000A86809F081F98046D5E900108DE843001C
:1085900019491A4BC91AC908012343EA0140434645
:1085A0002FA1AA6808F01AFA1349144A891AC908AF
:1085B000012242EA014034A108F0C0F90BE00E4963
:1085C0000E4A891AC908012242EA0140324633A103
:1085D00008F0BEF900BF00BF00BF3648006800F0D9
:1085E000010000B100BE00BF22463146384600F00F
:1085F00063F8BDE8FE83000050CC030070CB03009D
:10860000534F46544445564943453A2041535345F8
:108610005254494F4E204641494C45440000000009
:10862000534F46544445564943453A20494E5641D6
:108630004C4944204D454D4F5259204143434553E9
:1086400053000000415353455254494F4E20464178
:10865000494C45442061742025733A25750000007B
:108660004552524F52202575205B25735D20617461
:108670002025733A25750D0A50432061743A203045
:108680007825303878000000456E64206F662065DC
:1086900072726F72207265706F727400554E4B4E1D
:1086A0004F574E204641554C542061742030782558
:1086B00030385800F0ED00E018B5012300939DF824
:1086C00000301E4B186059609A606FF48043034479
:1086D00063B1012B19D1194BDA60DB681B68174CA9
:1086E000A3612346DB685B68E3610EE0134B1A610C
:1086F0001B699B68114C636123461B691B68A3615E
:1087000023461B695B68E36100BF00BF0B4B1B681E
:108710000A4B5B68094B9B68084BDB68074B1B697E
:10872000064B5B69054B9B69044BDB6972B600BF66
:108730009DF80030002BFBD162B618BD904C002094
:1087400010B5024803F02AF910BD0000C041002016
:1087500030B503460C460AB9072030BD19684FF002
:10876000FF358D60CD604A61012C01D1012000E010
:10877000002008610020F0E710B586B004461349D8
:10878000134A891AC908032242EA014011A108F0DC
:10879000D5F811E00D490E4A891AC908032242EAA8
:1087A000014010A108F0CAF8684602F019FE18222C
:1087B0006946202002F0ACFF02F00AFE0028E9D052
:1087C00000200C49087006B010BD000050CC03001A
:1087D00070CB030061636B2074696D656F757421E4
:1087E0002100000073746F72652061206461746100
:1087F0002E000000483F002070B504460E490F4A85
:10880000891AC908032242EA01400DA108F096F82E
:1088100001200F49087020883B2176DF054600BF04
:108820002E463EB100BF0BA240F2AE313046FEF7FD
:10883000F3FC00BF00BF70BD50CC030070CB030041
:10884000617574682074696D65206F75742E000001
:10885000813A00202E2E5C2E2E5C2E2E5C557365E8
:10886000725F4D6F64656C5C6D6F64656C5F626CAC
:10887000652E630010B50446FFF732FE10BD000000
:1088800010B504460248007810F000FA10BD000050
:10889000F43E002038B513480068009008235822A1
:1088A00011491248006806F012FC04460CB120463B
:1088B00038BD0F4A69460F4803F076F804460CB1FC
:1088C0002046F5E701210B4803F014F901230A4A79
:1088D0001946084803F034F801200849087020467A
:1088E000E6E700000C970300B04C0020FC96030064
:1088F00049670300C0410020FFFF7F00CC410020FA
:1089000010B5034A0121034804F0A8FE10BD000081
:10891000758802008493030010B5034A00210348C0
:1089200004F09CFE10BD00007987020088930300CC
:108930002DE9F84306460D46904634460020009047
:10894000684600F05DF84FF0FF33D4E9021059405B
:108950005840014308D104F051FC401941F1000195
:10896000C4E90201012700E000279DF8000000F0A3
:108970004DF817B90020BDE8F883C4F818802069C5
:1089800000B12561214600200FF05CFDF3E70000F7
:1089900010B500224FF47A710248006804F068FEB6
:1089A00010BD000084930300F8B50446254600205E
:1089B0000090684600F024F84FF0FF33D5E902102C
:1089C00059405840014301D1002604E04FF0FF31E7
:1089D000A960E96001269DF8000000F017F80EB9C3
:1089E0000020F8BD294601200FF02CFDF9E700001A
:1089F00010B50248006804F056FE10BD84930300D1
:108A000010B5044620460EF0BFF810BD70B5044600
:108A100025460E488068B0B1ADB9FFF70FFB06469A
:108A20000A4800680A490860084840684FF0E02199
:108A3000C1F804010020054988601EB900BF62B674
:108A400000BF00BF00BF00BF70BD0000184D002078
:108A500000E100E0F8B505460C4617462088001DE9
:108A6000B84201D90C20F8BD684679DF064600BF40
:108A7000304600B1F7E700BF032021886854208802
:108A8000401C20801920218868542088401C2080A8
:108A900020884119BDF800000FF026FF2188084406
:108AA00020800020DFE770B505460C462068401C9A
:108AB00028B1206807F0D0FB206807F0C7FA60688B
:108AC000401C18B10021606807F0A6FA2868A16967
:108AD000C0F8241500BF617D227D286841EA0203A9
:108AE000C0F86C3500BFD4E90012286808F028FFF0
:108AF000207D012814D1A068401C18B10021A06875
:108B000007F08AFAE068401C28B1E06807F0A4FB8F
:108B1000E06807F09BFAD4E90221286808F0F8FE23
:108B200070BD70B505460C462068401C28B1206811
:108B300007F09FFB206807F095FA6068401C18B1A9
:108B40000321606807F075FA2868A169C0F8241548
:108B500000BF617D227D286841EA0203C0F86C35C0
:108B600000BFD4E90012286808F024FF207D012806
:108B700014D1A068401C18B10021A06807F059FA70
:108B8000E068401C28B1E06807F073FBE06807F07C
:108B900069FAD4E90221286808F0EDFE70BD70B5CD
:108BA00004460D46204605F0C9FC70BD70B5FFF7C0
:108BB00071FE044600BF254635B100BF03A2162151
:108BC0002846FEF729FB00BF00BF70BD2E2E5C2E8D
:108BD0002E5C2E2E5C557365725F48414C5C48419B
:108BE0004C5F74696D65722E6300000010B586B02D
:108BF0000446142205A101A8FEF75EFC22461421BA
:108C000001A800F083FB06B010BD0000A4B5CC02A3
:108C1000FF0C415554485F52455155455354AAEDF8
:108C200010B50446637903F003022179208805F02A
:108C3000CDFB10BD10B50446207918B9204600F0D0
:108C400007F803E02046FFF7EBFF00BF00BF10BDB1
:108C50002DE9FE4307463E884FF0000800225948A0
:108C60000178304600F02EFB7879C0F3800028B9F7
:108C7000002138460AF070FEBDE8FE8306F58071DB
:108C800088B201AB012207210BF008F80546C5B1F7
:108C9000284608F0F9FD81464B494C4A891AC90813
:108CA000012242EA014033464A46494907F05CFE48
:108CB000294630460EF08CFA002138460AF04CFE68
:108CC000DAE7304604F0FCFE04464FF6FF718C42B2
:108CD0001BD1029804F03EFE04464FF6FF7084421A
:108CE00013D02146304604F0C9FE3046FFF7EEFBB4
:108CF00058B930460EF000FA3046FFF7E7FB20B9CE
:108D0000002138460AF028FEB6E74FF6FF7084428D
:108D10001FD10BF0DDF904464FF6FF70844212D1EB
:108D200029492A4A891AC908012242EA014029A18F
:108D300007F004FE042130460EF04AFA00213846BE
:108D40000AF00AFE98E72146304604F097FE4FF0FD
:108D5000010806F5807188B2224607210BF026F83B
:108D6000054625B9012138460AF0F6FD28E0862D92
:108D700007D130460EF0F2F9012138460AF0ECFD39
:108D80001EE0284608F080FD81460F490F4A891AE7
:108D9000C908012242EA014033464A461A49009472
:108DA00007F0F2FD294630460EF012FA002138464F
:108DB0000AF0D2FDB8F1000F02D0204604F068FEA0
:108DC00000BF59E771410020B0CB030070CB030016
:108DD00054C10300436F756C64206E6F7420616C26
:108DE0006C6F63617465206E657720706565725F76
:108DF000696420666F7220696E636F6D696E6720AB
:108E0000626F6E642E00000070C20300002114E047
:108E10000C48D0F81024012308E000BFD068007986
:108E2000884201D1002303E0D0680268002AF4D10F
:108E300000BF0BB108467047491C0A29E8DB4FF018
:108E4000FF30F8E72051002038B50D480068009049
:108E5000002168460DF076FD044600BF254635B179
:108E600000BF08A2C3212846FEF7D6F900BF00BF05
:108E7000042004F01FFC042007F0E1F938BD0000D5
:108E8000809303002E2E5C2E2E5C2E2E5C55736577
:108E9000725F4D6F64656C5C757365725F6861725B
:108EA00064776172652E63002DE9F0414FF0000890
:108EB000042007F028F90A2404B90DE000BF4FF49C
:108EC0007A7505B904E00A4FAE013046B84700BFD5
:108ED000601E041EF3D100BF08200DF07BFD80460C
:108EE000042007F0ACF908EB4800BDE8F081000071
:108EF000619303002DE9F04104460F46154615B96C
:108F00000E20BDE8F0810020286000BF0CB90E20C3
:108F1000F7E700BF00BF206808B90E20F1E700BFE7
:108F200000BFE088C11700EB91718910A0EB8101AF
:108F300009B10720E5E700BF384600F015F9C6B2D1
:108F4000142E01D10520DCE72079B04201DC042099
:108F5000D7E7E188206806FB010028600020D0E701
:108F60002DE9FC4105468846164600243788002036
:108F7000308095F82D0058B13A463146404600F011
:108F8000D3F9044600BF204608B1BDE8FC8100BF0C
:108F9000A87850B13A4631464046FFF75BFD04469B
:108FA00000BF204600B1F0E700BFE87860B1E97883
:108FB00048B23B463246414603F0A8FB044600BF98
:108FC000204600B1E1E700BF686868B1696891F9BF
:108FD00000003B46324641460FF0AFFA044600BF60
:108FE000204600B1D1E700BF288900280EDD4346A6
:108FF0000622022105F10800CDE900670FF0B4FD5B
:10900000044600BF204600B1BFE700BF288A002801
:109010000EDD43460722032105F11000CDE900676C
:109020000FF0A2FD044600BF204600B1ADE700BF2F
:10903000288B00280EDD43461522142105F1180067
:10904000CDE900670FF090FD044600BF204600B157
:109050009BE700BF286A58B13B4632464146286A22
:1090600001F048FC044600BF204600B18DE700BF78
:10907000686A58B13B4632464146686A05F01CFEB4
:10908000044600BF204600B17FE700BF95F82C00E2
:1090900000280BDD3B463246414628460EF090FA4A
:1090A000044600BF204600B16FE700BF287858B1E2
:1090B0003B4632464146284605F0EDFE044600BFD9
:1090C000204600B161E700BF20465EE72DE9F04190
:1090D000044600BF14B90E20BDE8F08100BF1C2279
:1090E00021461C48FEF7E8F91B481A490860206829
:1090F00060B120687ADF05460DB12846ECE71648D6
:1091000021680A6802604968416005E012487BDF17
:1091100005460DB12846DFE7002617E006EB86007E
:109120000E4901EB800700BF4FF6FF70388000BF8B
:109130000B4800EB461078600A4A0021381DFFF703
:1091400007FB05460DB10320C6E7761C022EE5D3CA
:109150000020C1E7E84700204A400020C047002027
:10916000804700202D8A030010B50446204600F0F9
:10917000BFF808B1204610BD1420FCE710B5044626
:10918000204600F0B5F820B12146034806F041F82A
:1091900010BD0020FCE700001448002070B5044614
:1091A0000D46164620460FF07BFC08B9002070BD26
:1091B000034951F824003246294603F021FBF6E723
:1091C0002048002010B50446204600F091F820B158
:1091D0002146034806F01DF810BD0020FCE7000002
:1091E0001C48002010B50446204600F081F820B14C
:1091F0002146034806F00DF810BD0020FCE70000F2
:109200001848002008B50648C068C04300900448CC
:109210008168684606F03BF80098FEF7E3FF08BD5A
:109220000448002070B504460025204600F060F890
:1092300050B12146054805F0ECFF06460EB102206C
:1092400000E00120054600BF284670BD1048002000
:1092500070B504460025204600F04AF850B121467A
:10926000054805F0D6FF06460EB1022000E00120B9
:10927000054600BF284670BD0C48002010B51821D7
:10928000044805F096FF0446182C00D110BDE0B24A
:10929000FCE700000448002070B505460C46204657
:1092A0000FF0FEFB50B1284600F022F830B104491F
:1092B00001EB8400294605F0ACFF70BD0020FCE7FF
:1092C0002048002070B505460C46164620460FF093
:1092D000E7FB50B1284600F00BF830B1034901EB31
:1092E00084003246294603F002FA70BD204800206F
:1092F00010B50446142C01DB002010BD21460248A5
:1093000005F087FFF9E7000008480020F8B504469B
:109310000E46154600962B466A462146014800F047
:109320006FFCF8BDC03E00202DE9FC4105460C460F
:10933000174620880930B84202D90C20BDE8FC81CC
:1093400068466DDF064600BF304600B1F6E700BF55
:109350000820218868542088401C20801B202188F8
:1093600068542088401C208020882844DDF80110A3
:109370000160BDF8051081802088801D20809DF847
:109380000000400818B900202188685402E001203C
:10939000218868542088401C20800020CEE70000EF
:1093A0002DE9F84F04460E460025A7883846FFF7FA
:1093B00039FF8146FFF726FF82462188DFF8ACC1DE
:1093C0005CF821300A466A49DFF8A8C1A1EB0C011C
:1093D000C9084FF0030C4CEA014067A107F0C4FA3A
:1093E0006349644A891AC908032242EA01403A469D
:1093F00067A107F0ADFA208821281ED008DC1028CC
:1094000014D011280BD0132836D019287ED13EE075
:109410003B286BD0522854D05628F7D185E03246ED
:1094200004F10801384600F0F1FA9CE0324604F1FC
:109430000801384600F014FA95E04D494D4A891A62
:10944000C908042242EA01405AA107F077FA002035
:109450000090A08869468FDF054600BFA846B8F196
:10946000000F07D000BF58A24FF42D714046FDF702
:10947000D3FE00BF00BF76E03D493E4A891AC908C5
:10948000032242EA014058A107F058FA6BE0207A23
:1094900058B9227A3649374BC91AC908032343EA17
:1094A000014059A107F054FA0AE0227A3049314BC1
:1094B000C91AC908032343EA01405BA107F048FA2F
:1094C00051E0A08800231A461946B1DF054600BFC7
:1094D000A846B8F1000F07D000BF3BA240F2CD2153
:1094E0004046FDF799FE00BF00BF3CE02049214AFD
:1094F000891AC908042242EA014053A107F01EFA62
:10950000A088132176DF054600BF00E02AE0A846C8
:10951000B8F1000F07D000BF2BA240F2D521404682
:10952000FDF77AFE00BF00BF1DE01149114A891AFC
:10953000C908042242EA014049A107F0FFF9A088C6
:10954000132176DF054600BFA846B8F1000F07D00B
:1095500000BF1DA240F2DD214046FDF75DFE00BFC9
:1095600000BF00E000BF00BFBDE8F88FEC3A00206C
:1095700050CC030070CB0300626C65206576656E8D
:1095800074206964203D2025643A20257300000082
:10959000626C6520676170206576656E7420636F0C
:1095A0006E6E6563742068616E646C65203D202575
:1095B0006400000050485920757064617465207221
:1095C0006571756573742E002E2E5C2E2E5C2E2E0A
:1095D0005C557365725F4D6F64656C5C6D6F64653F
:1095E0006C5F626C652E6300424C455F4741505F83
:1095F0004556545F5345435F504152414D535F526E
:109600004551554553542E00415554482053554318
:10961000434553532077697468207374617475737C
:10962000203A2025642E00004155544820464149E7
:109630004C55524520776974682073746174757352
:10964000203A2025642E00004741545420436C6981
:10965000656E742054696D656F75742E000000008E
:1096600047415454205365727665722054696D6584
:109670006F75742E0000000070B504460D462088FA
:10968000102806D0112808D012280ED0502810D14A
:1096900007E0204609F06EFA0CE0204609F09AFC3B
:1096A00008E0204609F0C2FE04E0204609F04AFA2C
:1096B00000E000BF00BF70BD2DE9F04104460F4639
:1096C000A6882088102806D0112819D019283FD044
:1096D0001A284AD118E00CF095FE30460CF0EEFC4A
:1096E00030B900BF22A2F0210420FDF795FD06E06D
:1096F000E07B022803D131462C4805F099FD34E087
:1097000030460CF0A3FE30E0207A0509042D01DB81
:10971000012000E000200246314624480C3002F0CF
:10972000E6FF032D01DB012000E000200246314668
:109730001E48083002F0DBFF022D01DB012000E0B3
:109740000020024631461948001D02F0D0FF0CE00F
:10975000207A48B9607AC0F3C0052A4631461348DA
:109760000C3002F0C4FF00BF00BF00BFBDE8F081B5
:109770002E2E5C2E2E5C2E2E5C2E2E5C2E2E5C2E23
:109780002E5C636F6D706F6E656E74735C626C657A
:109790005C636F6D6D6F6E5C626C655F636F6E6E48
:1097A0005F73746174652E63000000001048002030
:1097B00070B504460D4600BF0A48007800B970BD78
:1097C00000BF204604F06EFC00B1F8E7204604F02C
:1097D0002BF820460EF054F8204603F0CBFA00BFD9
:1097E000EDE700008840002070B505460E46288849
:1097F000102802D011282CD115E01748006860B954
:1098000001F0E4F9044600BF34B11448006818B10F
:10981000204612490968884700BF0F480068401C6D
:109820000D49086016E00C480068401E0A490860AF
:109830000846006860B9FEF733FD044600BF34B146
:109840000648006818B1204604490968884700BFE7
:1098500000E000BF00BF70BDB8420020B44200204D
:109860002DE9FC4706460F469246FFF7CBFC8146A2
:10987000002522E005EB45003D4901EB80004088D2
:109880004FF6FF71884217D105EB4501384A02EBCC
:109890008100314605F080FE044600BFA046B8F1C5
:1098A000000F07D000BF33A240F236214046FDF73B
:1098B000B3FC00BF00BF02E06D1C022DDAD300BF75
:1098C000B9F1020F03D1112006F0ACFC04E00F2027
:1098D00006F00CFCFEF790FD0421304601F050F933
:1098E0002C492D4A891AC908032242EA01402B4912
:1098F0000A882BA107F02CF82649274A891AC9089B
:10990000032242EA01402D490A882DA107F020F8E0
:1099100032480078AA2829D13D463146684600F0F1
:10992000A1FA0622691C6846FDF7FDFDE8B9194950
:10993000194A891AC908032242EA014028A106F0FF
:10994000FDFF5A20254908701249134A891AC9088F
:10995000032242EA014021490A7826A106F0F8FFD5
:109960000E4806800F2006F0C1FB00BFBDE8FC8753
:10997000F04200202E2E5C2E2E5C2E2E5C55736540
:10998000725F4D6F64656C5C6D6F64656C5F626C7B
:10999000652E630050CC030070CB03008C3E00208A
:1099A00063656E7472616C20636F6E6E5F68616E6A
:1099B000646C653A2025782E000000008E3E002061
:1099C0006D616E6167657220636F6E6E5F68616E58
:1099D000646C653A2025782E00000000803A002053
:1099E00063656E7472616C20636F6E6E6563742E56
:1099F000000000004C54535F424F4E445F434F4EB3
:109A00004E203A20307825782E000000F8B5044624
:109A10000D461746FFF7F6FB064628783A4951F8F7
:109A2000200000902B783949394A891AC908032245
:109A300042EA0140224637A106F0A6FF16B90F20E0
:109A400006F0F0FB022E05D226B1112006F04EFBE7
:109A5000FEF7D2FC2D492E4A891AC908032242EA90
:109A6000014039490A8839A106F072FF2749284A7E
:109A7000891AC908032242EA01403B490A883BA1EE
:109A800006F066FF30480088844221D11F49204AF1
:109A9000891AC908032242EA01403BA106F04EFFA1
:109AA0003E4800785A280ED1AA203C490870174930
:109AB000174A891AC908032242EA014037490A783D
:109AC00037A106F045FF4FF6FF701F4908801AE0E6
:109AD00025480088844216D10C490D4A891AC908C4
:109AE000032242EA014034A106F028FF4FF6FF703E
:109AF0001D49088029480078552804D104F03DFB11
:109B000008B101F02FFBF8BDA83C002050CC0300A9
:109B100070CB0300446973636F6E6E656374656434
:109B20002E20636F6E6E5F68616E646C653A2030E4
:109B30007825782C20726561736F6E3A2030782515
:109B400078202573000000008C3E002063656E7451
:109B500072616C20636F6E6E5F68616E646C653AF3
:109B60002025782E000000008E3E00206D616E6181
:109B700067657220636F6E6E5F68616E646C653AD4
:109B80002025782E0000000063656E7472616C20E1
:109B9000646973636F6E6E6563742E00803A002093
:109BA0004C54535F424F4E445F554E434F4E4E20F0
:109BB0003A20307825782E006D616E6167657220DD
:109BC000646973636F6E6E6563742E0010B500F088
:109BD00005F902F053FE02F007FFFEF78BFB0DF0D4
:109BE0003BFD00F0D7FE0AF0E9FB034A00210348E1
:109BF00003F034FD10BD0000F98702004893030014
:109C00002DE9F04186B00446884617461D4600BF40
:109C10001CB90E2006B0BDE8F08100BF01AA29469C
:109C20006069FFF767F9064600BF304600B1F1E70B
:109C300000BF4FF6FF70854201D0019808B905209A
:109C4000E8E70198007808B90820E3E73888F428A5
:109C500001DD0720DEE700200290039004900590CC
:109C6000A088ADF80800CDF81480049701208DF885
:109C70000A0002A92846AEDFCCE7000070B58EB01E
:109C800004460E463E4B0FCB09AD0FC500BF14B9BD
:109C90000E200EB070BD00BF00BF0EB90E20F8E759
:109CA00000BF3068A061214609A862DF054600BFF9
:109CB000284600B1EDE700BF20788DF8360001207E
:109CC000ADF83400A21C0DA9A8DF054600BF284648
:109CD00000B1DEE700BF202101A8FDF706FC02204D
:109CE000ADF8040020788DF80600F420ADF80800E7
:109CF0000120ADF80A008DF810009DF8110020F049
:109D0000080008308DF811009DF8110020F00400C3
:109D1000001D8DF8110001208DF815008DF816003A
:109D2000608804F10C0201A900F07EFB05460DB12C
:109D30002846AEE7202101A8FDF7D7FB0320ADF8A8
:109D4000040020788DF80600F420ADF8080001200A
:109D5000ADF80A008DF810009DF8110020F01000F9
:109D600010308DF8110001208DF815008DF81600C7
:109D70008DF817006088221D01A900F055FB88E7C7
:109D8000D499030070B504460D4605B104B970BD01
:109D90002E462088102804D0502807D057280FD1ED
:109DA00009E02146304608F01DFF0AE02146304612
:109DB00009F068FB05E02146304609F04DFA00E065
:109DC00000BF00BF00BFE2E770B5044620460EF0BA
:109DD00085FD054605F0010070BD000038B507F0AF
:109DE00001FC044600BF25463DB100BF15A24FF45B
:109DF0003C712846FDF710FA00BF00BF002000901C
:109E00006946012007F0EAF9044600BF25463DB146
:109E100000BF0CA240F2F6212846FDF7FDF900BF75
:109E200000BF684607F0A8FA044600BF25463DB1CA
:109E300000BF04A240F2FA212846FDF7EDF900BF69
:109E400000BF38BD2E2E5C2E2E5C2E2E5C55736509
:109E5000725F4D6F64656C5C6D6F64656C5F626CA6
:109E6000652E630070B596B004460D4615A92846C8
:109E70000BF046FC061E17D10D490E4A891AC90877
:109E8000032242EA0140BDF854200BA106F060FD18
:109E900001A9BDF854000BF0F1FB0646DDF81610E1
:109EA0002160BDF81A00A080304616B070BD0000D9
:109EB00050CC030070CB0300706565722069643A72
:109EC00020307825782E000070B586B004461D49F4
:109ED00003C9CDE904011C48018804A8FFF7C2FFAB
:109EE000051E1FD19DF810009DF811109DF812203D
:109EF0009DF81330CDE90032CDE902109DF8143001
:109F00009DF815201149124E891BC908032646EAFF
:109F1000014010A106F07EFD062204A9204600F0B3
:109F200041FC0CE0134951F825200849084BC91A97
:109F3000C908032343EA01400FA106F009FD06B05A
:109F400070BD0000A89303008C3E002050CC03009D
:109F500070CB030070656572206164647265737311
:109F60003A20257820257820257820257820257806
:109F700020257800283E00206572726F723A2025F5
:109F8000732E000070B50446FF201449087001F0DC
:109F90004BF8002240F6B8311148006803F068FB26
:109FA00001E0FDF7E5FC0D480078FF28F9D00C48EA
:109FB000006803F078FB0B49084A127851F8220038
:109FC000FDF7AAFAC5B20748044A127850F82210E1
:109FD0002A46204600F05EFB70BD0000F03F0020E6
:109FE0008C930300843A002030B503460020042BF4
:109FF00023D2012A07D1012903D103F10E04E4B2CF
:10A0000000E00024224679B1012902D0022911D1B1
:10A0100004E003EB43040A4D2A550DE003EB43042F
:10A02000074D2C44627007E003EB4304044D2C44BD
:10A03000A27001E0072000BF00E0072030BD000053
:10A04000C85700202DE9FC4704460D461646A71CBC
:10A050004FF001080020019001A8FEF7D1FC304824
:10A06000406828602E4840682D498968411A2D486B
:10A070000068401CA0EB010915E001212A4805F009
:10A08000FBF804F083FB82465146274805F0F4F8BC
:10A090002348406822498968411A22480068401CC8
:10A0A000A0EB010900BF4F45E7D8B8F1000F30D051
:10A0B0000021009176B1009921F00301491C009123
:10A0C000009921F00401091D0091009964F38911A0
:10A0D00000910DE0009921F00301891C0091009985
:10A0E00021F00401091D0091009964F39F51009132
:10A0F0000B4949680B4A12681140094A0C3202EBBD
:10A100008100009901600649496839440C3A516060
:10A1100000BF9DF80400FEF779FC4046BDE8FC87CF
:10A1200020510020704200203C55002070B50446AC
:10A130000D460A2D03D10D212046FFF7F7FFA16838
:10A14000481CA06020684554D4E90110884202D31D
:10A15000204605F03EFB70BD04488068034949680D
:10A16000884201D1012070470020FCE720510020E7
:10A1700010B50446A079401CC0B2A0713B2828DD70
:10A180000020A0716079401CC0B260713B2820DDC6
:10A19000002060712079401CC0B22071172818DDA2
:10A1A00000202071A178208803F004F8E178491C90
:10A1B000C9B2E17088420CDA0120E070A078401C3E
:10A1C000C0B2A0700C2804DD0120A0702088401CC3
:10A1D000208010BD0949098801800849897881706B
:10A1E0000649C978C170054909790171034949795E
:10A1F000417102498979817170470000203F002038
:10A2000070B50446204603F0F0FF051E0CD02088F0
:10A2100006490880A0788870E078C87020790871B5
:10A2200060794871A0798871284670BD203F002070
:10A2300070B586B005466C1D20460EF06DFBADF87E
:10A240001000A41C14F8010B8DF8120014F8010B77
:10A250008DF8130014F8010B8DF8140014F8010B9D
:10A260008DF8150014F8010B8DF8160004A8FFF7FF
:10A27000C7FFF8B19DF816009DF815109DF8142041
:10A280009DF81330CDE90032CDE902109DF812306F
:10A29000BDF810200B490C4E891BC908032646EA5D
:10A2A00001400A4906F0B6FB072209A1284600F042
:10A2B000F1F904E0062208A1284600F0EBF906B007
:10A2C00070BD000050CC030070CB030040B403000D
:10A2D00073756363657373006661696C6564000020
:10A2E0007CB50446204603F0EBFB054600236A4696
:10A2F000092109F035FE052805D10122024801781F
:10A300002046FEF7DFFF7CBD644000207CB504469C
:10A310000E460020019042F6A620ADF80400012070
:10A320008DF806000748006800906A4601A920469B
:10A33000A0DF05462DB90122034801782046FEF72B
:10A34000C1FF7CBD30940300654000200146887940
:10A35000012809D10879012806D1488842F602125D
:10A36000904201D1012070470020FCE74FF0FF31FF
:10A37000054A42F82010082804DBFF23A0F1080159
:10A380005A32535470470000784B0020014602486F
:10A3900050F8210070470000784B00202DE9F04F65
:10A3A00003460C464FF0FF390AB1002000E00820B8
:10A3B00084460AB1082000E00C208046614624E073
:10A3C000154850F82100401CF0B91D4608462746A4
:10A3D00016464FFA80FBDFF840A00AF1300A0AF86F
:10A3E00005B0DFF834A04AF820704EB94FFA85FB6B
:10A3F000A0F1080ADFF820E00EF15A0E0EF80AB0BC
:10A4000000BF4FFA81F902E0491C4145D8D300BF93
:10A410004846BDE8F08F0000784B00200146014817
:10A4200040567047A84B002070B590B006460C46C9
:10A430001546A07818B901208DF80E0002E0A0782A
:10A440008DF80E002088ADF80C0000200290607C92
:10A4500002A90DF04FF9A07C0DF109010DF04AF9A8
:10A46000E07B08B1012000E000209DF80A1060F3B5
:10A47000C3018DF80A10207C08B1012000E0002003
:10A480009DF80A1060F304118DF80A10207B08B1C2
:10A49000012000E000209DF80A1060F300018DF813
:10A4A0000A10207D08B1022000E001209DF80A106A
:10A4B00060F342018DF80A101C2109A8FDF715F878
:10A4C000607BC0F3001018B9607BC0F34010F8B196
:10A4D00000200090E07C0DF101010DF00BF900BFB0
:10A4E0009DF8000020F00F00401C8DF800009DF842
:10A4F000000020F0F00010308DF8000000BF9DF843
:10A50000020020F00600801C8DF80200CDF838D043
:10A51000607B8DF82400A07B8DF82500142104A811
:10A52000FCF7E3FF03A8049002A80590A088ADF80B
:10A530001C00A06820B1E088ADF81800A068089061
:10A54000A069002849D000200190A0690088ADF8DA
:10A550002C00A0694088ADF82E00A06940680A90E0
:10A5600001A80D90A169087B01A90DF0C3F8A169AC
:10A57000487B0DF105010DF0BDF8A069807A08B1A6
:10A58000012000E000209DF8061060F3C3018DF863
:10A590000610A069C07A08B1012000E000209DF8F3
:10A5A000061060F304118DF80610A069007A08B156
:10A5B000012000E000209DF8061060F300018DF8F6
:10A5C0000610A069807B08B1022000E001209DF800
:10A5D000061060F342018DF80610E06908B1E069E9
:10A5E0000C902B4604AA09A93046AADF10B070BD12
:10A5F0002DE9F04104460D464FF6FF763046844281
:10A600000AD14FF48071284604F0D3FD86B2B6F526
:10A61000807F10D126460EE0FF2C0CDC2146284618
:10A6200004F0B0FD80F001070FB1204601E04FF6C5
:10A63000FF70064600BF3046BDE8F08170B50546A4
:10A640000DB9094C01E0084C083409E0204603F03C
:10A65000EBFD064606B904E028467168884700BF4E
:10A66000F4E700BF70BD00006C4B002010B504463D
:10A670002CB90120064948700020FFF7DFFF012CAC
:10A6800004D1012002498870FFF7D8FF10BD0000F7
:10A69000644B0020F0B589B004460E461546FF22F3
:10A6A00024216846FCF71AFF21781E4A52F831002F
:10A6B000FCF732FF074620781A4A52F830103A4623
:10A6C0000DF106000DF0E8FC2178164A52F8310031
:10A6D000FCF722FF0DF1060147182A46314638469D
:10A6E000FCF70EFF21780F4A52F83100FCF714FFF7
:10A6F0002844C7B222793B46AA2168460EF0F0F9F9
:10A700002178084A52F83100FCF706FF801D2844E2
:10A71000801C87B2628839466846FEF7F7FD09B0AB
:10A72000F0BD0000843F002010B504462078084AA0
:10A7300002EBC0004168204688470649064A891A4C
:10A74000C908032242EA014004A106F0F7F810BD4F
:10A75000843F002050CC030070CB0300636D642065
:10A760006A756D70206F7665722E000010B5024814
:10A7700006F01DFC10BD000094CC030010B504468B
:10A7800000222146014806F0B9FB10BD94CC03001D
:10A7900010B504462146024806F021FC10BD000019
:10A7A00094CC0300F0B589B004460E461546FF224E
:10A7B00024216846FCF792FE21781E4A52F83100A7
:10A7C000FCF7AAFE074620781A4A52F830103A469B
:10A7D0000DF106000DF060FC2178164A52F83100A8
:10A7E000FCF79AFE0DF1060147182A463146384615
:10A7F000FCF762FE21780F4A52F83100FCF78CFE1C
:10A800002844C7B222793B46AA2168460EF068F96F
:10A810002178084A52F83100FCF77EFE801D28445A
:10A82000801C87B2628839466846FEF76FFD09B022
:10A83000F0BD0000843F00202DE9F047024613469A
:10A840008C46D3E90245DCE90267B6EB040877EBF6
:10A85000050002D30120BDE8F0870020FBE733B5F7
:10A860008BB00546002000900C9878B100240BE0D6
:10A8700021460CA804F0CDFC28B1009A501C009091
:10A8800001A820F81240641C142CF1D32C22694634
:10A890002846FCF711FE0DB030BD01460888062899
:10A8A00008DB0888B0F5486F06DD08884FF6FF72B0
:10A8B000904201D0072070474888062808DB488866
:10A8C000B0F5486F06DD48884FF6FF72904201D020
:10A8D0000720F0E708884FF6FF72904208D04888BA
:10A8E000904205D008884A88904201DD0720E2E7BF
:10A8F0000020E0E72DE9F04107460D461446984652
:10A900002088801D404502D90C20BDE8F0813846E2
:10A91000FFF7C3FF064600BF304600B1F5E700BFB2
:10A920000520218868542088401C2080122021881E
:10A9300068542088401C20802288511938880DF0E6
:10A94000D3FF2188084420802288511978880DF08F
:10A95000CBFF2188084420800020D6E710B50446AC
:10A9600000BF04A240F2FB112046FCF755FC00BFDB
:10A9700010BD00002E2E5C2E2E5C2E2E5C557365B5
:10A98000725F4D6F64656C5C6D6F64656C5F626C6B
:10A99000652E630030B587B01C216846FCF7A5FD25
:10A9A000002000904FF4A03001904FF4F02002906E
:10A9B00003208DF80C000020ADF80E008DF810007B
:10A9C0000A4805900A4806906846FEF77FFB044651
:10A9D00000BF25463DB100BF06A240F21221284625
:10A9E000FCF71AFC00BF00BF07B030BDF92A030016
:10A9F0005DA902002E2E5C2E2E5C2E2E5C557365FA
:10AA0000725F4D6F64656C5C6D6F64656C5F626CEA
:10AA1000652E6300F8B505460C46607A88B9207A41
:10AA200010B91048476801E00E4887682A46394641
:10AA30006068FDF77DFF064616B130460CF06EFBF0
:10AA40000EE0002020720748406948B101208DF8CF
:10AA50000000ADF80250034841696846884700BFCE
:10AA6000F8BD0000E8470020F0B585B004460D466B
:10AA700017461E4614220B496846FCF71DFDADF82B
:10AA800002408DF80850ADF80A708DF80C60002275
:10AA9000054801782046FEF715FC684601F056FA95
:10AAA00005B0F0BD5C9503007141002010B586B083
:10AAB0000446208808F006FF00BB2088FEF75EFBF6
:10AAC00030B92088012241F2060101F0B0F815E00A
:10AAD000208800220A490978FEF7F4FB03208DF84C
:10AAE00004002088ADF8060000208DF80C0000213D
:10AAF0008DF80D1001A801F029FA00BF06B010BDB5
:10AB000071410020F8B505460E4619480078A0B9F5
:10AB1000184A00211848FDF71BFE044600BF2746CF
:10AB20003FB100BF154A40F205113846FCF774FBEF
:10AB300000BF00BF01200E49087000200090ADF852
:10AB400000508DF8026010210B48009A0068FDF754
:10AB5000EFFE044600BF27463FB100BF074A4FF44F
:10AB600088713846FCF758FB00BF00BFF8BD0000F5
:10AB70005841002015B002000495030094BE030064
:10AB80002DE9F04104460D462A462146032077DF91
:10AB9000064600BF374637B100BF04A2E22138465F
:10ABA000FCF73AFB00BF00BFBDE8F0812E2E5C2E03
:10ABB0002E5C2E2E5C557365725F4D6F64656C5C08
:10ABC0006D6F64656C5F626C652E630010B5012269
:10ABD00000210846FFF708FA044600BF1CB1072C05
:10ABE00001D0204610BD00BF072202210120FFF73F
:10ABF000FBF9044600BF1CB1072C01D02046F1E749
:10AC000000BF042202210020FFF7EEF9044600BF36
:10AC10001CB1072C01D02046E4E700BF0020E1E78B
:10AC20002DE9FF4105460C4629492A4A891AC908D7
:10AC3000042242EA01402B46224627A105F094FE59
:10AC4000002002900390ADF80840ADF80A40009053
:10AC500001906A4602A9284690DF0646002E32D0AF
:10AC6000304606F011FE074619491A4A891AC908E2
:10AC7000012242EA01403B462A46234905F074FE80
:10AC8000BDF8000010B9BDF8020068B1BDF802308F
:10AC9000BDF800200E490F4FC91BC908012747EA1C
:10ACA00001401AA105F060FEBDF8040058B1BDF8DE
:10ACB00004200749074BC91AC908012343EA014088
:10ACC000224905F045FE304604B0BDE8F0810000A1
:10ACD00088CB030070CB03005570646174696E67A4
:10ACE0002064617461206C656E67746820746F20E5
:10ACF0002575206F6E20636F6E6E656374696F6E6D
:10AD000020307825782E0000A8B80300546865200C
:10AD10007265717565737465642054582F5258209C
:10AD20007061636B6574206C656E6774682069730D
:10AD300020746F6F206C6F6E672062792025752FED
:10AD40002575206F63746574732E0000F4B80300DA
:10AD500070B504460D4628782070698888B2611C59
:10AD600008F00AFC2879E070211DA86808F008FCAA
:10AD70000B480078552812D0A88904F1080108F082
:10AD8000FBFBA87BA072E87BE072287C2073687CC8
:10AD90006073A87CA07320200BF0FCFAE07370BDF8
:10ADA000803A002070B58EB005460C461A261DB9B3
:10ADB00001A800F0ABF901ADFF22314607A8FCF76E
:10ADC0008DFB29460DF12200FFF7C2FF52480078A3
:10ADD000552801D0042C0CD112232246DD2107A8CE
:10ADE0000DF07EFE4D480288314607A8FEF78EFA28
:10ADF00090E0012C01D0032C23D112232246DD2127
:10AE000007A80DF06DFE4649464A891AC908032273
:10AE100042EA0140324607A905F01CFD4049414A7B
:10AE2000891AC908032242EA01403F490A883FA122
:10AE300005F08EFD3C480288314607A8FEF766FA09
:10AE400068E035480078AA280FD13549354A891A73
:10AE5000C908032242EA01403BA105F06FFD182218
:10AE600001A9202000F054FC54E02C4800884FF643
:10AE7000FF71884216D02A492A4A891AC908032232
:10AE800042EA014039A105F059FD12230422DD21D7
:10AE900007A80DF025FE21480288314607A8FEF7D5
:10AEA00035FA37E01E491F4A891AC908032242EAC7
:10AEB000014035A105F042FD12230322DD2107A840
:10AEC0000DF00EFE1649174A891AC908032242EAF4
:10AED0000140324607A905F0BDFC134802883146FF
:10AEE00007A8FEF713FA01A800F084FA002241F245
:10AEF00070712C48006802F0BBFB0949094A891AA5
:10AF0000C908032242EA014027A105F017FD0120EC
:10AF10002C4908700EB070BD803A00208E3E002093
:10AF200050CC030070CB03008C3E002063656E7430
:10AF300072616C20636F6E6E2068616E646C652058
:10AF40003D203078257800006E6F2063656E747246
:10AF5000616C20636F6E6E6563742C2073746F7206
:10AF600061676520646174612E00000073656E6422
:10AF700020646F6F72206461746120746F206D6152
:10AF80006E616765722E000073656E6420646F6F7A
:10AF900072206461746120746F2063656E747261E5
:10AFA0006C2E00008893030061636B2074696D6FE1
:10AFB0007573742074696D65722073746172742E78
:10AFC00000000000483F00202DE9F04105460F46F3
:10AFD0000F4C0121204604F086F9064600BF00BF51
:10AFE00000BF00BFBFF35F8F00BF00BF00BF0EB93F
:10AFF000012000E0002040B1284603F00DFB08B11D
:10B00000BDE8F081024805F0DBFE00BFF8E7000074
:10B010005C40002038B5044600949DF80210BDF84D
:10B020000000FDF711F838BD70B50C490C4A891ABB
:10B03000C908032242EA01400AA105F07FFC0AF098
:10B04000A3FC044600BF254635B100BF09A29121EB
:10B050002846FCF7E1F800BF00BF70BD50CC0300EC
:10B0600070CB0300457261736520626F6E6473215B
:10B07000000000002E2E5C2E2E5C2E2E5C5573657B
:10B08000725F4D6F64656C5C6D6F64656C5F626F61
:10B090006E642E630000000070B506460D4616B1C2
:10B0A0004FF4064070BD287920B1012809D002284C
:10B0B00015D111E00220287128460BF05DF80446F6
:10B0C00010E0284601F0D6FA044648F209608442AE
:10B0D00001D141F61D5405E041F61D5402E048F24D
:10B0E0000E6400BF00BF2046DCE770B5044620793F
:10B0F0003D2802D141F23D0001E04FF48850054661
:10B1000020880022294603F061F970BD10B504467D
:10B1100000222146014805F0F1FE10BD6CCC030071
:10B1200010B504462146024805F059FF10BD000045
:10B130006CCC030008B50120074B022200210090CF
:10B14000142002F079F8142005F052F8C0B2034937
:10B1500008700349087008BD294603001C3F002001
:10B160001D3F002010B5142002F0CCFA10BD0000E5
:10B1700010B586B0044618221D496846FCF79CF9B4
:10B180001C491D4A891AC908032242EA01401BA131
:10B1900005F0D4FB142000BF202801D2820602E073
:10B1A00000F01F00194A114600BFD1F81025C24017
:10B1B00002F001028DF80020FDF776FE00B2ADF836
:10B1C000020045208DF8040011480078552808D069
:10B1D00010480068401C0F490860029003A8FEF761
:10B1E000F9FF21796846FFF7DDFD06B010BD0000CC
:10B1F0009093030050CC030070CB0300646F6F7218
:10B200002071756572696E672E00000000030050A2
:10B21000803A0020F03E00202DE9F043C3B0044600
:10B2200020200BF0B7F807465C495D4A891AC90827
:10B23000032242EA01403A465AA105F089FB002F59
:10B240007ED0FF22F4216846FCF748F96E460025BF
:10B25000002058490870B61D2178574A52F831002D
:10B26000FCF75AF980462078534A52F8301042468B
:10B2700030460CF011FF21784F4A52F83100FCF7AC
:10B280004BF906444FF0010846E018233DAA414619
:10B29000202000F095FA3DA93046FFF759FD1236FF
:10B2A000681CC5B243480078401C42490870032D11
:10B2B0002ED12178404A52F83100FCF72DF905EBE8
:10B2C000C50100EB410000F0FF0922794B46AA219D
:10B2D00068460DF005FC09F108023049304BC91AE7
:10B2E000C908032343EA0140694605F0B3FA6288BE
:10B2F00009F108016846FEF709F8002521782E4A71
:10B3000052F83100FCF708F90DF10601461800BFAC
:10B3100008F101001FFA80F8B845B6DD85B3217841
:10B32000254A52F83100FCF7F7F805EBC50100EBB0
:10B33000410000F0FF0822794346AA21684600E058
:10B340001FE00DF0CDFB08F108021449144BC91A97
:10B35000C908032343EA0140694605F07BFA628885
:10B3600008F108016846FDF7D1FF00252178124A4F
:10B3700052F83100FCF7D0F80DF10601461800BF75
:10B3800009E00649064A891AC908032242EA01402F
:10B390000AA105F0D3FA43B0BDE8F08350CC030016
:10B3A00070CB0300646F6F72207265737420256424
:10B3B0002E000000703F0020843F00206E6F20723E
:10B3C00065636F72642073746F72616765642E00C9
:10B3D00010B5024805F0E0FD10BD000080CC030070
:10B3E00010B5044600222146014805F087FD10BD36
:10B3F00080CC030010B504462146024805F0EFFD5D
:10B4000010BD000080CC03002DE9F04E86B0042072
:10B410008DF8040000208DF8050003208DF806004B
:10B4200006208DF807000020029001208DF80C0006
:10B43000642417490868D0F81015CDB200BFAB4698
:10B440004FF47A50A4FB00695A4630464946FCF74F
:10B4500019F807463846074604970220ADF814004D
:10B4600001208DF816000B4A01A909480CF06CFF69
:10B47000824600BF544634B100BF07A2A621204631
:10B48000FBF7CAFE00BF00BF06B0BDE8F08E0000AB
:10B4900054930300C58003002E2E5C2E2E5C2E2EAE
:10B4A0005C557365725F4D6F64656C5C7573657236
:10B4B0005F68617264776172652E6300F0B58BB06E
:10B4C00005460E4617460020089009900A900690FF
:10B4D0000790049005900190029003906449654A9A
:10B4E000891AC908032242EA01403B462A4662A162
:10B4F000009605F049FA06AB08AA3946284600F03E
:10B50000D3FF04467CB1A4F50641644A52F82130C9
:10B510005749584A891AC908032242EA014022467B
:10B520005FA105F021FA04A908A800F0E7FF04468E
:10B530007CB1A4F50641594A52F821304C494D4A94
:10B54000891AC908032242EA014022465AA105F09D
:10B550000BFAADF80450ADF806600598029006218C
:10B560000391002006900790089009900A9006AB7E
:10B5700008AA3146284600F097FF04467CB1A4F59E
:10B580000641464A52F8213039493A4A891AC908CF
:10B59000032242EA0140224641A105F0E5F94C4868
:10B5A000007820F020004A49087001A908A800F09E
:10B5B000CDFF04467CB1A4F50641384A52F821304B
:10B5C0002B492C4A891AC908032242EA0140224623
:10B5D00040A105F0C9F901E0FCF7CAF93C48007840
:10B5E000C0F340100028F7D0002006900790089084
:10B5F00009900A9006AB08AA3946284600F054FF85
:10B6000004467CB1A4F50641244A52F82130184979
:10B61000184A891AC908032242EA0140224620A199
:10B6200005F0A2F92A48007820F0040028490870A3
:10B6300008A800F015FF04467CB1A4F50641174A9E
:10B6400052F821300A490B4A891AC908032242EAF2
:10B650000140224626A105F087F901E0FCF788F9B0
:10B660001B480078C0F380000028F7D00BB0F0BD75
:10B6700050CC030070CB030066696C6520696420C0
:10B6800025642C206B6579207372632025642C203F
:10B690006B6579206465732025642E000C400020C2
:10B6A00066696E6420726573756C743A2030782513
:10B6B000782C2025732E00006F70656E20726573E4
:10B6C000756C743A20307825782C2025732E000074
:10B6D0004840002075706461746520726573756CF4
:10B6E000743A20307825782C2025732E0000000035
:10B6F0007265636F72642064656C65746520726541
:10B7000073756C743A20307825782C2025732E00C0
:10B71000F0B587B005460E46174600200490059008
:10B720000690019002900390ADF8105028460AF060
:10B7300031FE401CADF812000596F81C81080691F8
:10B740001448007820F002001249087004A901A8EA
:10B7500000F00AFF044684B1A4F506410E4A52F8EF
:10B7600021300E490E4A891AC908032242EA0140D3
:10B7700022460CA105F0F8F808E001E0FCF7F8F823
:10B7800004480078C0F340000028F7D0204607B0F6
:10B79000F0BD0000484000200C40002050CC0300C9
:10B7A00070CB03007772697465202564207265731D
:10B7B000756C743A20307825782C2025732E000083
:10B7C0002DE9F04188B005460E4617469846002000
:10B7D000039004900590019002902C492C4A891AFC
:10B7E000C908032242EA014033462A4629A105F04E
:10B7F000BBF801AB03AA3146284600F055FE0446CB
:10B800007CB1A4F50641294A52F821301F49204A4B
:10B81000891AC908032242EA0140224624A105F000
:10B82000A3F806A903A800F069FE04467CB1A4F5BC
:10B8300006411E4A52F821301449154A891AC9088E
:10B84000032242EA014022461FA105F08DF842463C
:10B8500038460799FBF730FE03A800F0CDFD0446FB
:10B860007CB1A4F50641114A52F821300749084A33
:10B87000891AC908032242EA0140224618A105F0AC
:10B8800073F8204608B0BDE8F081000050CC0300FA
:10B8900070CB030066696C652069642025642C20E8
:10B8A0006B6579207372632025642E000C400020A4
:10B8B00066696E6420726573756C743A2030782501
:10B8C000782C2025732E00006F70656E20726573D2
:10B8D000756C743A20307825782C2025732E000062
:10B8E000636C6F736520726573756C743A20307881
:10B8F00025782C2025732E0010B50021034803F075
:10B90000F2FC044684F3100010BD00003C550020FA
:10B9100070B505460C464FF4803000FA04F1284615
:10B9200000F09AFA70BD70B505460C464FF4A07051
:10B9300000EB840086B23146284600F0ADFA70BDB7
:10B940002DE9F04704460D4616461F464FF4803059
:10B9500000FA05F84FF4A07000EB85001FFA80F99B
:10B9600026F07F464146206805F0E6FB4146206808
:10B9700005F0DCFB4946206805F0D1FB324629463C
:10B98000206805F0C3FB4146206805F0D2FB1FB1DB
:10B990004146206805F0D3FBBDE8F08710B50446AA
:10B9A000206805F0B8FB10BD2DE9F04704460D46B0
:10B9B00017466079324941F820706079314901EBCE
:10B9C000C000007968B108262F49304A891AC90891
:10B9D000022242EA01402EA104F0B0FF3046BDE849
:10B9E000F08729882068C0F8081500BF94F9042062
:10B9F000AB7810461946002808DB4FEA417C4FEA35
:10BA00001C68DFF8B0C00CF800800BE04FEA417C06
:10BA10004FEA1C69DFF8A0C000F00F08A8F1040885
:10BA20000CF8089000BF00BF94F9041008460028E5
:10BA30000DDB00BF00BF00F01F0301229A40430945
:10BA40009B0003F1E023C3F8002100BF00BF00BF4B
:10BA500000BF012061790B4A02EBC10108716079D6
:10BA6000114641F8304000260749084A891AC9089A
:10BA7000032242EA014011A104F060FF3046AEE724
:10BA8000E4410020E841002010CC030070CB03000B
:10BA900052544320696E7374616E636520616C72E9
:10BAA0006561647920696E697469616C697A65643D
:10BAB0002E00000000E400E018ED00E05254433A8C
:10BAC00020696E697469616C697A65642E00000092
:10BAD00010B5014691F90400002807DB00F01F03B0
:10BAE00001229A40024B440943F8242000BF10BDB4
:10BAF00000E200E070B505460C46224602212846C9
:10BB000000F0B6F970BD10B504464FF482712046BE
:10BB100000F0C2F910BD10B504460021206805F000
:10BB200011FB10BD10B504460421206805F00AFB86
:10BB300010BD2DE9F84F04468846154699464FF446
:10BB4000803000FA08FA4FF4A07000EB88001FFA6A
:10BB500080FB25F07F455146204600F07DF92068A6
:10BB600005F0D9FA06464146206805F0C9FA00906A
:10BB700032464146206805F0C9FA5946206805F06A
:10BB8000CEFA314600980CF097FA012806D1102021
:10BB900005F068FF5946206805F0C1FA206805F0F5
:10BBA000BAFA0646314628460CF086FA0746514650
:10BBB000206805F0BEFA012F0FD16A1C41462068AB
:10BBC00005F0A4FA102005F04DFF206805F0A3FA57
:10BBD000B04225D00D20BDE8F88F2A4641462068A6
:10BBE00005F094FA206805F096FA0646681E31467C
:10BBF0000CF062FA07466FF07F40A0EB0900B842F4
:10BC000001D20D20E7E75FB96A1C4146206805F0C4
:10BC10007DFA206805F07FFAB04201D00D20DAE706
:10BC200001225146204600F023F90020D3E770B5E9
:10BC300006460C4615462B46224600213046FEF7A6
:10BC400013FF70BD2DE9F84305460E46174698468A
:10BC500069461048006803F04EFA044614B90420FF
:10BC6000BDE8F8831C212046FBF73FFC0120207132
:10BC70002560C4F8088008480068B6FBF0F0E06072
:10BC8000676169460348006803F05FFA0AF074F9D7
:10BC90000020E5E7AC970300A097030010B5044629
:10BCA000D4E90321501828DF10BD0278072A38D2C2
:10BCB000DFE802F037040712222B340000220A705A
:10BCC00030E001220A7003898B818388CB81C268AE
:10BCD0008A6000230B7425E002220A7003898B819D
:10BCE0008388CB81C2688A60827D062A01D10123C4
:10BCF00000E000230B7415E003220A70C3888B81D7
:10BD00000389CB81C2688A600CE004220A70C38870
:10BD10008B810023CB8100228A6003E005220A7018
:10BD200000E000BF00BF704770B50546002409E081
:10BD3000064850F8240020B1044850F82410284642
:10BD40008847641C042CF3D370BD0000244D0020F0
:10BD500030B587B004460D462068806808B907B042
:10BD600030BD182101A8FBF7C0FB0295A068069022
:10BD7000207910B1012815D109E001208DF80400C7
:10BD800020690390E0680490606905900BE0022050
:10BD90008DF804000749E06809684843039060692A
:10BDA000059000E000BF00BF2068816801A88847B7
:10BDB00000BFD4E7A0970300F0B585B005460C4658
:10BDC0001646002C3ED0112C3CD0082C3AD00D2C1D
:10BDD00024D11D491D4A891AC908022242EA01409C
:10BDE0002A461B4904F0B4FD2A460421684603F0A4
:10BDF000C7F82EB1307800F0010008B1012000E052
:10BE000002208DF8080000218DF80C1041F201117C
:10BE1000ADF80A10684600F0ADF813E0204605F0D2
:10BE200033FD07460849094A891AC908012242EA2E
:10BE300001402B463A46074904F096FD2146284624
:10BE40000BF0DAF905B0F0BDB8CB030070CB0300FE
:10BE50002CC303003CC4030070B504460D462946BC
:10BE6000206805F063F92946206805F065F970BD82
:10BE700070B504460E4615463146206805F059F95E
:10BE80001DB13146206805F05AF970BD10B5044661
:10BE9000204600F06FF810BD70B505460C462868C6
:10BEA000015929B12146286805F039F9012070BDF2
:10BEB0000020FCE770B50446608801F001FEA08018
:10BEC000002505E0044850F82510204688476D1CE1
:10BED000002DF7D070BD00005440002070B504461E
:10BEE000A08801F017FD6080002505E0044850F8A7
:10BEF0002510204688476D1C002DF7D070BD00002E
:10BF00006840002070B50546002405E0044850F85C
:10BF1000241028468847641C022CF7D370BD00000B
:10BF20007094030070B50546002405E0054850F8FC
:10BF3000241028468847641C034800788442F5DBB7
:10BF400070BD0000184B00209640002070B50446DC
:10BF5000608801F0B5FDA080002505E0044850F898
:10BF60002510204688476D1C002DF7D070BD0000BD
:10BF70001C95030070B50546002405E0044850F800
:10BF8000241028468847641C002CF7D070BD0000A0
:10BF90009495030070B5044621786C4D55F8213016
:10BFA0000A466B496B4D491BC908032545EA014008
:10BFB00069A104F0D9FC2078062872D2DFE800F0ED
:10BFC000032BA4496786606888B96848007820F028
:10BFD0000100401C654908705D495E4A891AC9081C
:10BFE000032242EA014062A104F0A8FC12E0616869
:10BFF000A1F50641634D55F821306168A1F506426F
:10C000005349544D491BC908032545EA01405EA127
:10C0100004F0AAFC97E0606838B95448007820F032
:10C020000200801C5149087012E06168A1F50641C8
:10C03000544D55F821306168A1F506424449454DFB
:10C04000491BC908032545EA01404FA104F08CFCB7
:10C0500079E0606838B94548007820F00400001D98
:10C060004249087012E06168A1F50641454D55F856
:10C0700021306168A1F506423549364D491BC90892
:10C08000032545EA014040A104F06EFC5BE06068D6
:10C0900040B93648007820F008000830334908706D
:10C0A00013E04FE06168A1F50641364D55F82130A7
:10C0B0006168A1F506422649264D491BC90803259A
:10C0C00045EA014030A104F04FFC3CE0606838B91B
:10C0D0002648007820F0100010302449087012E043
:10C0E0006168A1F50641274D55F821306168A1F539
:10C0F00006421749174D491BC908032545EA014067
:10C1000021A104F031FC1EE0606838B917480078BE
:10C1100020F0200020301549087012E06168A1F578
:10C120000641184D55F821306168A1F506420849CD
:10C13000084D491BC908032545EA014012A104F036
:10C1400013FC00BF00BF00BF70BD0000F43F002023
:10C1500050CC030070CB0300666473206576656E77
:10C16000742069642025643A20257300484000202B
:10C1700066647320696E6974207375636365737395
:10C180002E0000000C400020666473206572726F00
:10C190007220747970652025643A202573000000B0
:10C1A00010B586B00446142101A8FBF79EF9A089BA
:10C1B00000F07AFAADF80800207806285ED2DFE8B1
:10C1C00000F05D0304052E4A00BF00BFA08900F007
:10C1D00070FA18B9E0890AF008F9F8B1E0890AF0B4
:10C1E00001F98DF80C002078032801D1012100E02D
:10C1F00000218DF80D10A1680491606830B9092004
:10C200008DF8040001218DF8141004E00A208DF847
:10C2100004006168059101A807F0EAFD2FE0A089FC
:10C2200000F047FAB0B1E089A0B9606838B90B20D6
:10C230008DF80400BDF8080008F02EF804E00C208A
:10C240008DF804006068039001201149087001A86E
:10C2500007F0CEFD13E0606818B914208DF80400D3
:10C2600004E015208DF80400606803904FF6FF701D
:10C27000ADF8080001A807F0BBFD00E000BF00BF5B
:10C280000348007808B107F04DFF06B010BD00006C
:10C290007540002038B505461048007810B948F2BE
:10C2A000016038BD4FF6FF70854202D148F203604D
:10C2B000F7E7684609F040FD044614B948F2076004
:10C2C000EFE70520207001202071E580684609F025
:10C2D00043FD09F045FE0020E3E70000F0410020A7
:10C2E00038B50E48007810B948F2016038BD68468C
:10C2F00009F022FD044614B948F20760F6E706206B
:10C300002070684609F028FD0548007810B101202A
:10C310000349087309F024FE0020E7E7F0410020FC
:10C32000304E002070B586B0142101A8FBF7DDF86F
:10C330003048007828B101A8FFF7F6FC002006B0CD
:10C3400070BD2C48001D02F090FF08B10020F6E7F8
:10C3500000F048FA06460EB13046F0E709F028FD35
:10C3600007F0F8F9054625B1022D03D0062D12D1AC
:10C3700007E000BF00201F490870486048F20A60CB
:10C38000DDE701201B4908700020486001A8FFF785
:10C39000CBFC0020D3E700BF00BF684609F0CCFC0F
:10C3A000044614B948F20760C9E7012020700C2D3B
:10C3B00016D2DFE805F01506150715111512150A36
:10C3C0000E0B00BF002020710BE000BF0320207186
:10C3D00007E00220207104E000BF0120207100E08E
:10C3E00000BF00BF684609F0B7FC09F0B9FD0020A6
:10C3F000A5E70000F041002038B5044614B948F222
:10C40000046038BD6946204609F0D4FE08B3BDF883
:10C41000000000EB8000114901EB8000C068A8B16A
:10C42000A07A98B1BDF8000000EB800001EB80001D
:10C43000C068401EBDF8001001EB8101074A02EB05
:10C440008101C8600020A072002504E048F2056563
:10C4500001E048F209652846D3E70000084E0020B5
:10C4600038B505460F48007810B948F2016038BD6C
:10C4700015B948F20460FAE7684609F05DFC044625
:10C4800014B948F20760F2E7042020700020207100
:10C490002968E160684609F05FFC09F061FD002051
:10C4A000E5E70000F04100207FB514461D462B460D
:10C4B000224601A9684609F015FE04B070BD37B5E3
:10C4C0000C4615462B4622466946002009F00AFE16
:10C4D0003EBD37B50C4615462B4622460021684620
:10C4E00009F000FE3EBD024602B111B948F20460F7
:10C4F0007047106808600020FAE70000F8B50446AD
:10C500000D4604B115B948F20460F8BD69462046ED
:10C5100009F050FEA0B16668BDF8001001EB810182
:10C52000094A02EB810101F10C00012102F0A4FE95
:10C530002E6060680C3068600120A0720020E4E783
:10C5400048F20960E1E70000084E002070B504469B
:10C550000D4614B948F2046070BD03230022294639
:10C5600020460CF09DFDF7E770B504460D4602230A
:10C570000022294620460CF093FD70BD70B505469B
:10C5800009480068042802D148F20B6409E0074812
:10C590000549096840F821500121034802F06CFE6A
:10C5A0000024204670BD0000FC410020244D0020E6
:10C5B0002DE9F84304464FF4806800262B480078A4
:10C5C00018B948F20160BDE8F88314B948F2046074
:10C5D000F9E712212046FAF788FF03202080002582
:10C5E0003FE005EB8500224901EB8000008905EB67
:10C5F00085011F4A02EB81014989084487B205EB96
:10C60000850102EB8101486807F020F8032802D178
:10C610002088401E2080608805EB8501144A02EBCB
:10C620008101C96808446080208905EB850102EB1F
:10C630008101498908442081608938446081C7F5B7
:10C64000806086B2A089B04200DAA68104F11000B1
:10C65000831EA21D211D0090284609F019FF681CA9
:10C6600085B2022DBDDB0020ADE70000F0410020C7
:10C67000084E00203EB504460A4B6A460021A01D24
:10C6800009F030FD054635B9064A9188019809F050
:10C690000BFE054603E00348002101604160284687
:10C6A0003EBD00000C4200200146A1F5404080B292
:10C6B00070470146B1F5404F05DB4FF6FE708142F1
:10C6C00001DC012070470020FCE710B5044620780B
:10C6D000182802D1FCF7D2FD207010BD10B5044619
:10C6E0002078182802D1FCF7C9FD207010BD70B564
:10C6F00005460E46144624B13146284602F098FD00
:10C7000003E03146284602F02EFD70BD30B50446E8
:10C710001088C01C984201D90C2030BD0220158819
:10C7200048551088401C10800120158848551088F5
:10C73000401C108015884C551088401C108000202B
:10C74000EBE700002DE9F04106460C4615460027B0
:10C75000112C01D1012700E0002765B13A460A48B3
:10C7600001783046FCF7AEFD0022084801783046DB
:10C77000FCF7A8FD05E03A46044801783046FCF78E
:10C78000A1FDBDE8F08100008F4100208C41002018
:10C7900010B54FF4405400F009F803490861084609
:10C7A0000069001BC86010BDC042002010B540F6F3
:10C7B000F8700068401C18B94FF01020406902E082
:10C7C00040F6F870006803464FF0805001694269F6
:10C7D000581C08B1184601E002FB01F0044620464F
:10C7E00010BD000010B5FFF7D3FF00220249034837
:10C7F00003F0AEF910BD0000B0970300C042002066
:10C80000F7B50D4617460DB90020FEBD002600986D
:10C8100068B1002409E02146684602F0FAFC18B12C
:10C82000A0B23946A847761C641C142CF3D33046BA
:10C83000EBE7000010B504462020FAF73BFF05495E
:10C84000054A891AC908032242EA014003A104F0FB
:10C8500075F810BD50CC030070CB030066696C65A1
:10C8600020636C656172206F7665722E0000000097
:10C8700010B50446606809F0C9FA10BD3EB500BFA6
:10C880009DF8000020F00F00401C00909DF8000073
:10C8900020F0F0001030009000BF182217A1684669
:10C8A0007CDF044600BF254635B100BF1AA2F62141
:10C8B0002846FAF7B1FC00BF00BF002001900290AB
:10C8C0004FF4C870ADF804004000ADF80600002039
:10C8D000ADF808004FF4C870ADF80A0001A87ADF7F
:10C8E000044600BF25463DB100BF0BA24FF4827144
:10C8F0002846FAF791FC00BF00BF3EBD4D756C7431
:10C90000695065726970686572616C5F54656D70BD
:10C910006C617465000000002E2E5C2E2E5C2E2EA5
:10C920005C557365725F4D6F64656C5C6D6F6465BB
:10C930006C5F626C652E630070B504460D462888F6
:10C9400040F67721884210D1A888C01E0D49088082
:10C950000D490E4A891AC908032242EA01400949D1
:10C960000B880A880AA103F0FFFF23886288064922
:10C97000064E891BC908042646EA01400BA103F0B4
:10C98000F3FF70BDDC3E002050CC030070CB0300F1
:10C9900044617461206C656E206973207365742036
:10C9A000746F20307825582825642900415454207C
:10C9B0004D54552065786368616E676520636F6DBF
:10C9C000706C657465642E2063656E7472616C2092
:10C9D00030782578207065726970686572616C20A6
:10C9E000307825780000000070B51149114802F038
:10C9F00022FD044600BF25463DB100BF0EA240F215
:10CA000015312846FAF708FC00BF00BFF721094896
:10CA100002F002FD044600BF25463DB100BF06A25C
:10CA20004FF446712846FAF7F7FB00BF00BF70BD10
:10CA300039C90200D44200202E2E5C2E2E5C2E2EF0
:10CA40005C557365725F4D6F64656C5C6D6F64659A
:10CA50006C5F626C652E630070B5054615B14FF4CE
:10CA6000064070BD1848007B18B1002016490873B5
:10CA700001E000F0DFF81448007808281DD2DFE854
:10CA800000F01C04080C101C141800F03FF80446B9
:10CA900016E000F0BDF8044612E000F099F80446F4
:10CAA0000EE000F047F804460AE000F035F90446CD
:10CAB00006E000F043F9044602E048F20E6400BFCD
:10CAC00000BF2046CDE70000304E00200D48008911
:10CAD000401C0C49088100204880087300BF0DE00D
