:020000040002F8
:10700000E0770020E1730200E9730200EB730200F5
:10701000ED730200EF730200F17302000000000044
:10702000000000000000000000000000F3730200F8
:10703000F573020000000000F7730200F97302000C
:1070400069790200FB730200217E0200FB730200DB
:10705000FB730200FB730200E5750200C9790200B0
:10706000FB730200097E0200FB730200FB73020047
:10707000FB730200FB730200FB730200FB73020050
:10708000457E0200B1790200FB730200FB7302002F
:10709000FB730200FB730200257C0200FB730200FD
:1070A000FB730200FB730200FB730200FB73020020
:1070B000FB730200FB7302000000000000000000F0
:1070C000FB730200FB730200FB730200FB73020000
:1070D000FB730200FB730200FB730200FB730200F0
:1070E000317E0200000000000000000000000000EF
:1070F00000000000FB73020000000000FB730200B0
:10710000000000000000000000000000000000007F
:10711000000000000000000000000000000000006F
:10712000000000000000000000000000000000005F
:10713000000000000000000000000000000000004F
:10714000000000000000000000000000000000003F
:10715000000000000000000000000000000000002F
:10716000000000000000000000000000000000001F
:10717000000000000000000000000000000000000F
:1071800000000000000000000000000000000000FF
:1071900000000000000000000000000000000000EF
:1071A00000000000000000000000000000000000DF
:1071B00000000000000000000000000000000000CF
:1071C00000000000000000000000000000000000BF
:1071D00000000000000000000000000000000000AF
:1071E000000000000000000000000000000000009F
:1071F000000000000000000000000000000000008F
:10720000DFF810D000F0ACF900480047E5E70200D5
:10721000AFF30080E077002000B583B002900091CA
:10722000019244F2010071466A4601F01DF903B073
:1072300000BD000030B450E8012F93B2C48923444C
:107240008489A34228BF1B1B0489A34202BFBFF34A
:107250002F8F002007E0C3EA020340E80134002C2E
:10726000E9D14FF001000A6030BC704750E8012FAF
:10727000C2EA024240E801210029F7D1704730B448
:1072800050E8022F1FFAA2F3C488A34202BFBFF343
:107290002F8F00200DE0C48923448489A34228BF96
:1072A0001B1BC2EA034340E80234002CE8D14FF034
:1072B00001000A6030BC704750E8022FC2EA224247
:1072C00040E802210029F7D17047034653E8022F16
:1072D000D988B2EB324F4FF0000017BF92B241EAAB
:1072E000014142EA014104E05A68B2EB324F08BF63
:1072F000012043E80212002AE8D1704730B4044666
:1073000054E8000F0D4644E80053002BF8D11560F7
:1073100030BC704730B4044654E8000F40EA010521
:1073200044E80053002BF7D1156030BC704730B4EF
:10733000044654E8000F00EA010544E80053002B1E
:10734000F7D1156030BC704730B4044654E8000FE4
:1073500080EA010544E80053002BF7D1156030BCEA
:10736000704730B4044654E8000F00EB010544E8D0
:107370000053002BF7D1156030BC704730B4044681
:1073800054E8000FA0EB010544E80053002BF7D1AF
:10739000156030BC704770B404464FF0000054E8EC
:1073A000006F0D68AE4207BF44E80023012044E8A7
:1073B00000630E60002B1CBF0020F0E770BC70471C
:1073C00030B4044654E8000F88422CBF451A0546E5
:1073D00044E80053002BF5D1156030BC7047000025
:1073E0000648804706480047FEE7FEE7FEE7FEE75F
:1073F000FEE7FEE7FEE7FEE7FEE7FEE73D7C020074
:10740000017202002DE9F05F0546002092469B467E
:1074100088460646814640241BE0284641464746AA
:10742000224600F02FF853465A46C01A914110D315
:1074300011461846224600F016F82D1A67EB01088F
:107440004F4622460120002100F00DF817EB0009FD
:107450004E41201EA4F10104DFDC484631462A4695
:107460004346BDE8F09F202A04DB203A00FA02F1EF
:10747000002070479140C2F1200320FA03F3194322
:1074800090407047202A04DB203A21FA02F00021C4
:10749000704721FA02F3D040C2F120029140084324
:1074A0001946704700487047789B0300A0F14101DE
:1074B000192900D82030704740EA01039B0703D008
:1074C00009E008C9121F08C0042AFAD203E011F823
:1074D000013B00F8013B521EF9D27047D2B201E0E5
:1074E00000F8012B491EFBD270470022F6E710B5C9
:1074F00013460A4604461946FFF7F0FF204610BD22
:1075000010B5044604E00B7800F8013B03B1491CB8
:10751000521EF8D2204610BD421C10F8011B002953
:10752000FBD1801A704730B504460020034600E0C6
:107530005B1C934203D2E05CCD5C401BF8D030BDB5
:1075400030B505460020034600E05B1C934205D29F
:10755000EC5CC85C201A01D1002CF6D130BD0000D3
:10756000064C074D06E0E06840F0010394E8070090
:1075700098471034AC42F6D3FFF746FE14CC030014
:1075800034CC030070B58D1810F8014B14F00302D1
:1075900001D110F8012B231106D110F8013B03E0B3
:1075A00010F8016B01F8016B521EF9D1ABB110F864
:1075B000012B04F00C048A1A0C2C03D0A2EB8412C9
:1075C0009B1C08E010F8014BA2EB0422F8E712F82C
:1075D000014B01F8014B5B1EF9D5A942D4D3002021
:1075E00070BD00002DE9FC470026002000900190AE
:1075F0004FF480770125002410E0384608F004FE9F
:1076000040B100BF25480068284018B1384608F04E
:10761000EDFD2E436D00381D87B2641C082CECD3A1
:107620004FF4BE7008F0F0FD50B14FF4BE7008F09A
:10763000DDFD46F000466A460221002008F01CFDF0
:10764000F0B210B3012500241DE005EA0600C0B128
:1076500000BF134850F82400C0F30520814600BF46
:107660000F4850F82400C0F301408246204602F043
:1076700073FE8046B8F1000F02D051464846C0471D
:1076800000BF6D00641C082CDFD306F0004010B171
:1076900068460EF0CBF9BDE8FC87000004630040AB
:1076A0001065004070B505461B48007820F00800C2
:1076B00019490870284604F009FD04467CB1A4F578
:1076C0000641164A52F821301549164A891AC90846
:1076D000032242EA0140224613A109F09BF801E08F
:1076E00000F03EF90C480078C0F3C0000028F7D045
:1076F0000948007820F010000749087004F00CFDDC
:10770000044601E000F02CF903480078C0F30010B3
:107710000028F7D070BD0000E8400020AC400020F9
:1077200034CD030054CC030066696C652064656C3D
:1077300065746520726573756C743A2030782578AD
:107740002C2025732E00000070B500241F4804F083
:1077500031FE044600BF254635B100BF1CA2A12161
:107760002846FFF759FD00BF00BF2148007820F0F0
:1077700001001F49087004F0F1FC044600BF2546D3
:1077800035B100BF12A2A6212846FFF745FD00BF74
:1077900000BF01E000F0E4F81548007800F00100B7
:1077A0000028F7D01248007820F010001049087027
:1077B00004F0B2FC044601E000F0D2F80C48007876
:1077C000C0F300100028F7D0204670BDCDBD0200E8
:1077D0002E2E5C2E2E5C2E2E5C557365725F4841FA
:1077E0004C5C48414C5F666C6173682E630000001E
:1077F000E840002070B586B005460E460020039094
:10780000049005900190029001AB03AA31462846EE
:1078100004F066FD04467CB1A4F50641194A52F80D
:1078200021301949194A891AC908032242EA01403C
:10783000224617A108F0EEFF1B48007820F0040054
:107840001949087003A804F027FD04467CB1A4F58B
:1078500006410C4A52F821300B490C4A891AC908D2
:10786000032242EA0140224610A108F0D3FF01E0C2
:1078700000F076F80C480078C0F380000028F7D0BC
:1078800006B070BDAC40002034CD030054CC0300E2
:1078900066696E6420726573756C743A2030782561
:1078A000782C2025732E0000E84000207265636F5D
:1078B00072642064656C65746520726573756C74A0
:1078C0003A20307825782C2025732E002DE9FE43B0
:1078D00081460E4617460024164A07CA8DE807005F
:1078E0006D46B04605B9144D414628460AF094FE4F
:1078F000044600BF254635B100BF10A21F2128460F
:10790000FFF78AFC00BF00BF48460AF043FE04466A
:1079100000BF254635B100BF08A221212846FFF748
:107920007BFC00BF00BF0FB10AF064FE2046BDE83B
:10793000FE83000084940300789403002E2E5C2EB6
:107940002E5C2E2E5C557365725F48414C5C48413D
:107950004C5F7761746368646F672E63000000009A
:1079600010B509F08FF910BD10B54FF4807007F015
:107970005AFE50B14FF4807007F05EFE012007F010
:1079800065FE0A480168002088474FF4827007F0BE
:107990004AFE50B14FF4827007F04EFE022007F00D
:1079A00055FE024801680120884710BD444200206E
:1079B00010B5034A1068034A1168884710BD0000DB
:1079C0008842002084420020FEB54FF4827009F006
:1079D00007FB002837D04FF4827009F00BFB6C488E
:1079E00090F82E0018B16A4890F82F0058B3002084
:1079F0008DF8000066484068019065480189ADF83F
:107A00000810C06818B900206149087412E0604885
:107A1000008B5F4948830846C06848600846008B71
:107A200008810020C860084690F82E0010B9002098
:107A300009F0F8FA5648016868468847002054491A
:107A400081F82F0000BF524890F82E00002852D035
:107A50004FF4807009F0C4FA00284CD04FF48070C5
:107A600009F0C8FA4A48408B494991F82D108842DC
:107A700016DD4748408B464991F82D10401A44497D
:107A800048830A4612890B465B8BD21A0B465B6809
:107A900003EB42000A4692F82D1009F08DFA23E01C
:107AA0003B48408B3A4991F82D1088420FD1384815
:107AB000C06860B10120364981F82F00002048835A
:107AC0000A4692F82D10D06809F076FA0CE030489A
:107AD000408B2F4991F82D10884205D101202C4967
:107AE00081F82F00002048834FF4827009F082FA59
:107AF000042009F097FA4FF4887009F071FA70B118
:107B00004FF4887009F076FA0020214908740220A9
:107B10008DF80000084601686846884700BF4FF4AA
:107B20008A7009F05DFA38B14FF48A7009F062FA90
:107B30000020174908742AE01548456924E0B5FA81
:107B400085F64FF00040F0408543B00000F58C749E
:107B5000204609F045FAB8B1204609F04BFA012059
:107B60008DF80000A4F58C70C0F3C7008DF80400F8
:107B7000A4F58C70012121EA90018DF805100448CC
:107B800001686846884700BF002DD8D100BFFEBD00
:107B90005C4C00202DE9F047074688461646C24651
:107BA00007EB47011B4800EBC109D9F8140020B1CD
:107BB000012811D0022826D11EE0484600F062F9C3
:107BC0000546B54201D2002405E03446324651460E
:107BD000484600F09EF918E0484600F053F9054683
:107BE000B54201D2284600E03046044622465146BE
:107BF000484600F08EF908E032465146484600F00B
:107C00004FF9044601E0002400BF00BF2046BDE854
:107C1000F08700006055002010B50446204609F0AA
:107C200067F810BD10B509F055FC10BD01480249B8
:107C3000086070470090D0035C43002010B507F047
:107C400005FA40B10020684908604FF08041C1F852
:107C500010016649086007F013FA002855D06448FF
:107C60000068644908606248001D0068091D0860DA
:107C70005F4808300068091D08605D480C300068E6
:107C8000091D08605A4810300068091D08605848EE
:107C900014300068091D08605548183000685549BF
:107CA0002031086052481C300068091D08605048A7
:107CB00020300068091D08604D4824300068091D07
:107CC00008604B4828300068091D086048482C307F
:107CD0000068091D08604648303000684549403159
:107CE0000860434834300068091D08604048383057
:107CF0000068091D08603E483C300068091D0860A6
:107D00003B4840300068091D086007F06BF940B13E
:107D10003948006800F0010018B16FF001003649E1
:107D200008603648006840F470003449086000BFBD
:107D300000BF00BFBFF34F8F00BF00BF00BF00BF39
:107D400000BF00BFBFF36F8F00BF00BF00BF00BF09
:107D500007F062F920B12A48006824492031086000
:107D600000BF27480838006800F0004028B92448C0
:107D7000001F006800F0004090B301200AF00CFEE4
:107D800012201F49083908600AF010FE12214FF036
:107D90001020C0F804120AF009FE00200AF0FCFDD1
:107DA00000BF00BF00BF00BF00BFBFF34F8F00BFC9
:107DB00000BF00BF11487C38006800F4E060114942
:107DC0000843001D0D497C39086000BF00BF00BF9B
:107DD000BFF34F8F00BF00BF00BF00BF00BFFDE774
:107DE000FFE7FFF723FF10BD0C01004038050040FE
:107DF0000404001020C500400004004088ED00E0AD
:107E0000081200100000FA0510B5042202490348C8
:107E100006F0FDF810BD00008C4C002000900040E2
:107E200010B502490868804710BD00004C42002090
:107E300010B50249024810F013FD10BD384C002067
:107E40000080024008B500BF4FF480700B494058D5
:107E500008B1012000E0002078B10948006880479F
:107E600000BF00204FF48071044A88500846114634
:107E70004058009000BF00BF00BF08BD0000014097
:107E80005842002010B501460A69CB689A4204D8CE
:107E90008C68641EE41AA01801E0D41A601E10BD9C
:107EA0002DE9F0470446894617464FF0000AE56879
:107EB00000BFD4F81080A84503D9A8EB0500461EE2
:107EC00004E0A5EB0800401CA1680E1AA068401B46
:107ED000B04201D9304601E0A068401B0646BE42D0
:107EE00001D2304600E038460646616848193246FD
:107EF0004946FFF7E1FAB244B144BF1B3544A068DC
:107F0000A84200D10025E560002FD2D15046BDE83F
:107F1000F0872DE9F047044689461546E668A068D3
:107F2000871BAF4208D9616888192A464946FFF77E
:107F3000C3FA7019E06010E0B846616888194246DB
:107F40004946FFF7B9FAA5EB070809EB07014246D6
:107F50006068FFF7B1FAC4F80C80BDE8F08702E072
:107F600008C8121F08C1002AFAD1704770470020C4
:107F700001E001C1121F002AFBD1704701462029F0
:107F800008DA012088400A4A104008B101207047F1
:107F90000020FCE7402909DAA1F12000012202FAC1
:107FA00000F008B10120F2E70020F0E70120EEE741
:107FB000FC06FFBD00BFEFF31081084672B67047A4
:107FC000F8B505460E46D6B9694628460CF0B0FB12
:107FD000044643F202018C420AD000BF274637B163
:107FE00000BF3B4AB2213846FFF716F900BF00BF79
:107FF0009DF80000C0F3400000B1F8BD00BF0021B3
:1080000028460CF0A7FB0446002C5ED0112C5CD057
:108010000D2C21D12F49304A891AC908022242EA7F
:1080200001402A462D4908F0E9FB1321284676DF56
:108030000446002C49D0204609F05CFB0746254940
:10804000254A891AC908022242EA01402B463A46CB
:1080500023A108F0DFFB38E00B2C0BD11D491E4A91
:10806000891AC908022242EA01402A462A4908F030
:10807000C5FB2AE043F2020084420BD11549164A9F
:10808000891AC908022242EA01402A46234908F017
:10809000B5FB1AE0204609F02DFB07460D490E4AB4
:1080A000891AC908012242EA01402B463A461CA11E
:1080B00008F0B0FB00BF274637B100BF044AE121FA
:1080C0003846FFF7A9F800BF00BF00BF95E70000E2
:1080D00078BF03008CCC030054CC0300ACBD03007C
:1080E00073645F626C655F6761705F646973636F1F
:1080F0006E6E65637428292072657475726E65648E
:10810000202573206F6E20636F6E6E5F68616E64F2
:108110006C652025642E00006CBE030020BE0300A9
:10812000417373657274696E672E20706D5F636F43
:108130006E6E5F736563757265282920726574754C
:10814000726E6564202573206F6E20636F6E6E5FA4
:1081500068616E646C652025642E000031B50025D1
:10816000002406E02146684607F051F800B16D1C76
:10817000641C142CF6D3284638BD70B505460C4651
:1081800005B10CB9002070BD287840082178B0EB0B
:10819000510F01D00020F6E70622611C681CFFF792
:1081A000C2F908B90120EEE70020ECE7014601F032
:1081B000030008B9012070470020FCE70246506820
:1081C0000068401E084008B9012070470020FCE705
:1081D00010B50346D868884206D88818401E1C6926
:1081E000A04201D8012010BD0020FCE710B50446D4
:1081F0006CB10848C068A04209D806480069A0428E
:1082000005D3204605F0DFFF08B1012010BD002096
:10821000FCE700006043002010B50122022100208D
:1082200001F0AAFE044600BF1CB1072C01D0204675
:1082300010BD00BF07220221012001F09DFE04466F
:1082400000BF1CB1072C01D02046F1E700BF0A2275
:108250000021084601F090FE044600BF1CB1072C27
:1082600001D02046E4E700BF0020E1E730B5A5B02B
:108270003C2116A8FFF739F902208DF8580001209B
:108280008DF85A0006208DF85B000120ADF86800DB
:108290002C491B912C48021D016816A800F016FEFF
:1082A000044600BF25463DB100BF28A24FF45D71D2
:1082B0002846FEF7B1FF00BF00BF3C2107A8FFF72B
:1082C00014F90120ADF82C001E490C911E4800F154
:1082D0000C02816807A800F0F9FD044600BF25469E
:1082E0003DB100BF19A24FF45F712846FEF794FF1D
:1082F00000BF00BF182101A8FFF7F7F801208DF893
:108300000400002002904FF4C86003900020ADF8F4
:1083100010008DF8180001208DF8190001AA0A49F3
:10832000124872DF044600BF25463DB100BF07A2D8
:1083300040F289312846FEF76FFF00BF00BF25B02D
:1083400030BD00005E3F0020FC3E00202E2E5C2E43
:108350002E5C2E2E5C557365725F4D6F64656C5C90
:108360006D6F64656C5F626C652E6300F83E002083
:1083700070B501210D48007873DF044600BF254623
:108380003DB100BF0AA240F2B6312846FEF744FFD5
:1083900000BF00BF0E490F4A891AC908032242EAEA
:1083A00001400DA108F020FA70BD0000F83E002049
:1083B0002E2E5C2E2E5C2E2E5C557365725F4D6FDB
:1083C00064656C5C6D6F64656C5F626C652E6300E8
:1083D00034CD030054CC0300416476657274697334
:1083E000696E672073746172742E000070B58CB072
:1083F00004460D461646002005E0C0F10F01615C01
:108400000DF80010401C1028F7D30D2104A8FFF729
:108410006CF8002005E02A5CC0F10F0304A9CA54DF
:10842000401C0328F7D3684646DF002005E0C0F172
:108430000F0208A9895C3154401C0328F7D30CB003
:1084400070BD000010B5044602480178204600F0D7
:10845000D9FE10BD1442002010B5024801F050FEB4
:1084600010BD0000A03F00202DE9FE4307460E4648
:10847000144672B600BF08F0BBFA00BF00BF07F099
:10848000B1FF0028FBD100BF00BF012F0CD06FF45B
:108490008050384498B1B0F5405F2CD06FF4405113
:1084A0000844002847D115E03149324A891AC908E1
:1084B000012242EA014030A108F096F947E02C4938
:1084C0002C4A891AC908012242EA014032A108F067
:1084D0008BF93CE025462649DFF898C0A1EB0C015A
:1084E000C9084FF0010C4CEA014034A1D5E9003233
:1084F00008F090F92BE02546A86809F0FBF88046C3
:10850000D5E900108DE8430019491A4BC91AC9086A
:10851000012343EA014043462FA1AA6808F0B4F9B9
:108520001349144A891AC908012242EA014034A1B8
:1085300008F05AF90BE00E490E4A891AC9080122BF
:1085400042EA0140324633A108F058F900BF00BFAB
:1085500000BF3648006800F0010000B100BE00BF57
:1085600022463146384600F063F8BDE8FE8300003D
:1085700034CD030054CC0300534F46544445564970
:1085800043453A20415353455254494F4E204641AA
:10859000494C454400000000534F46544445564959
:1085A00043453A20494E56414C4944204D454D4F94
:1085B0005259204143434553530000004153534512
:1085C0005254494F4E204641494C45442061742045
:1085D00025733A25750000004552524F52202575EB
:1085E000205B25735D2061742025733A25750D0A83
:1085F00050432061743A20307825303878000000EC
:10860000456E64206F66206572726F7220726570AD
:108610006F727400554E4B4E4F574E204641554C8D
:10862000542061742030782530385800F0ED00E097
:1086300018B5012300939DF800301E4B1860596057
:108640009A606FF48043034463B1012B19D1194B35
:10865000DA60DB681B68174CA3612346DB685B6844
:10866000E3610EE0134B1A611B699B68114C636157
:1086700023461B691B68A36123461B695B68E36192
:1086800000BF00BF0B4B1B680A4B5B68094B9B6824
:10869000084BDB68074B1B69064B5B69054B9B6905
:1086A000044BDB6972B600BF9DF80030002BFBD194
:1086B00062B618BD984C002010B5024803F070F85F
:1086C00010BD00006042002030B503460C460AB9D8
:1086D000072030BD19684FF0FF358D60CD604A61CD
:1086E000012C01D1012000E0002008610020F0E70A
:1086F00010B586B004461349134A891AC9080322E3
:1087000042EA014011A108F06FF811E00D490E4A4C
:10871000891AC908032242EA014010A108F064F84E
:10872000684602F035FE18226946202002F0C8FF94
:1087300002F026FE0028E9D000200C49087006B09F
:1087400010BD000034CD030054CC030061636B20E6
:1087500074696D656F7574212100000073746F7208
:1087600065206120646174612E000000C83F002014
:1087700070B504460E490F4A891AC908032242EA15
:1087800001400DA108F030F801200F490870208841
:108790003B2176DF054600BF2E463EB100BF0BA24F
:1087A00040F2C5313046FEF737FD00BF00BF70BD57
:1087B00034CD030054CC0300617574682074696D76
:1087C00065206F75742E0000013B00202E2E5C2E5C
:1087D0002E5C2E2E5C557365725F4D6F64656C5C0C
:1087E0006D6F64656C5F626C652E630010B5044646
:1087F000FFF732FE10BD000010B5044602480078B5
:1088000010F0A0FA10BD0000743F002038B51348E6
:10881000006800900823582211491248006806F0A9
:1088200054FC04460CB1204638BD0F4A69460F4837
:1088300002F0BCFF04460CB12046F5E701210B48CD
:1088400003F05AF801230A4A1946084802F07AFF51
:108850000120084908702046E6E70000CC97030095
:10886000B84C0020BC9703007967030060420020E9
:10887000FFFF7F006C42002010B5034A012103482E
:1088800004F0E2FE10BD0000ED87020044940300F6
:1088900010B5034A0021034804F0D6FE10BD0000C5
:1088A000F1860200489403002DE9F84306460D4680
:1088B0009046344600200090684600F05DF84FF086
:1088C000FF33D4E9021059405840014308D104F065
:1088D0004FFC401941F10001C4E90201012700E009
:1088E00000279DF8000000F04DF817B90020BDE802
:1088F000F883C4F81880206900B125612146002062
:108900000FF0D4FDF3E7000010B500224FF47A71A8
:108910000248006804F0A2FE10BD00004494030069
:10892000F8B50446254600200090684600F024F87B
:108930004FF0FF33D5E9021059405840014301D1AF
:10894000002604E04FF0FF31A960E96001269DF8A0
:10895000000000F017F80EB90020F8BD29460120EC
:108960000FF0A4FDF9E7000010B50248006804F01C
:1089700090FE10BD4494030010B5044620460EF04E
:108980001BF910BD70B5044625460E488068B0B18D
:10899000ADB9FFF70FFB06460A4800680A490860B0
:1089A000084840684FF0E021C1F804010020054963
:1089B00088601EB900BF62B600BF00BF00BF00BF25
:1089C00070BD0000204D002000E100E0F8B5054634
:1089D0000C4617462088001DB84201D90C20F8BD6E
:1089E000684679DF064600BF304600B1F7E700BFB2
:1089F0000320218868542088401C20801920218869
:108A000068542088401C208020884119BDF800004F
:108A10000FF0C6FF2188084420800020DFE770B5F2
:108A200005460C462068401C28B1206807F0BDFBB5
:108A3000206807F0EBFA6068401C18B100216068FC
:108A400007F0CAFA2868A169C0F8241500BF617D43
:108A5000227D286841EA0203C0F86C3500BFD4E9E2
:108A60000012286808F0A2FE207D012814D1A06819
:108A7000401C18B10021A06807F0AEFAE068401C65
:108A800028B1E06807F091FBE06807F0BFFAD4E98D
:108A90000221286808F072FE70BD70B505460C46CC
:108AA0002068401C28B1206807F08CFB206807F084
:108AB000B9FA6068401C18B10321606807F099FAA0
:108AC0002868A169C0F8241500BF617D227D28684F
:108AD00041EA0203C0F86C3500BFD4E900122868EF
:108AE00008F09EFE207D012814D1A068401C18B11A
:108AF0000021A06807F07DFAE068401C28B1E0681A
:108B000007F060FBE06807F08DFAD4E902212868DD
:108B100008F067FE70BD70B504460D46204605F0AE
:108B2000F9FC70BD70B5FFF771FE044600BF254625
:108B300035B100BF03A216212846FEF76DFB00BF2A
:108B400000BF70BD2E2E5C2E2E5C2E2E5C557365E4
:108B5000725F48414C5C48414C5F74696D65722E90
:108B60006300000010B586B0044614220AA101A8D3
:108B7000FEF7A2FC2246142101A800F07DFB0B4960
:108B80000B4A891AC908032242EA0140142201A9AA
:108B900007F0B6FD06B010BDA4B5CC02FF0C4155E0
:108BA00054485F52455155455354AAED34CD030006
:108BB00054CC030010B50446637903F00302217915
:108BC000208805F0EBFB10BD10B50446207918B9DC
:108BD000204600F007F803E02046FFF7EBFF00BF58
:108BE00000BF10BD2DE9FE4307463E884FF0000848
:108BF000002259480178304600F01AFB7879C0F31A
:108C0000800028B9002138460AF022FEBDE8FE8324
:108C100006F5807188B201AB012207210AF0BAFF84
:108C20000546C5B1284608F065FD81464B494C4ACA
:108C3000891AC908012242EA014033464A46494995
:108C400007F0E8FD294630460EF0DAFA00213846F2
:108C50000AF0FEFDDAE7304604F028FF04464FF63E
:108C6000FF718C421BD1029804F06AFE04464FF655
:108C7000FF70844213D02146304604F0F5FE3046A2
:108C8000FFF7E0FB58B930460EF04EFA3046FFF7DA
:108C9000D9FB20B9002138460AF0DAFDB6E74FF6D5
:108CA000FF7084421FD10BF08FF904464FF6FF701E
:108CB000844212D129492A4A891AC908012242EA62
:108CC000014029A107F090FD042130460EF098FAEA
:108CD000002138460AF0BCFD98E72146304604F0F2
:108CE000C3FE4FF0010806F5807188B222460721C5
:108CF0000AF0D8FF054625B9012138460AF0A8FD3B
:108D000028E0862D07D130460EF040FA0121384682
:108D10000AF09EFD1EE0284608F0ECFC81460F4953
:108D20000F4A891AC908012242EA014033464A46DD
:108D30001A49009407F07EFD294630460EF060FA8D
:108D4000002138460AF084FDB8F1000F02D0204619
:108D500004F094FE00BF59E71142002094CC0300B8
:108D600054CC030038C20300436F756C64206E6FEF
:108D70007420616C6C6F63617465206E6577207020
:108D80006565725F696420666F7220696E636F6DDE
:108D9000696E6720626F6E642E00000054C303008A
:108DA00038B50D4800680090002168460DF0E2FDDE
:108DB000044600BF254635B100BF08A2C32128469E
:108DC000FEF72AFA00BF00BF042004F069FC04206B
:108DD00007F0DEF938BD0000409403002E2E5C2E13
:108DE0002E5C2E2E5C557365725F4D6F64656C5CF6
:108DF000757365725F68617264776172652E630076
:108E00002DE9F8434FF0000804200090684607F071
:108E10004DF904460121009A01FA02F0C4F80C054C
:108E200000BF00BF0A2404B90DE000BF4FF47A75FB
:108E300005B904E0094EAF013846B04700BF601ED7
:108E4000041EF3D100BF08200DF0DCFD8046042095
:108E500007F09EF908EB4800BDE8F8832194030071
:108E60002DE9F04104460F46154615B90E20BDE820
:108E7000F0810020286000BF0CB90E20F7E700BF8A
:108E800000BF206808B90E20F1E700BF00BFE088EE
:108E9000C11700EB91718910A0EB810109B1072086
:108EA000E5E700BF384600F015F9C6B2142E01D12F
:108EB0000520DCE72079B04201DC0420D7E7E18817
:108EC000206806FB010028600020D0E72DE9FC4166
:108ED000054688461646002437880020308095F8DD
:108EE0002D0058B13A463146404600F0D3F90446C9
:108EF00000BF204608B1BDE8FC8100BFA87850B192
:108F00003A4631464046FFF761FD044600BF204621
:108F100000B1F0E700BFE87860B1E97848B23B46BD
:108F20003246414603F0ABFB044600BF204600B189
:108F3000E1E700BF686868B1696891F900003B46E5
:108F4000324641460FF02DFB044600BF204600B1DB
:108F5000D1E700BF288900280EDD43460622022102
:108F600005F10800CDE900670FF05AFE044600BF86
:108F7000204600B1BFE700BF288A00280EDD434627
:108F80000722032105F11000CDE900670FF048FE2C
:108F9000044600BF204600B1ADE700BF288B002883
:108FA0000EDD43461522142105F11800CDE90067B6
:108FB0000FF036FE044600BF204600B19BE700BF1D
:108FC000286A58B13B4632464146286A01F088FC7F
:108FD000044600BF204600B18DE700BF686A58B163
:108FE0003B4632464146686A05F064FE044600BFCF
:108FF000204600B17FE700BF95F82C0000280BDD6C
:109000003B463246414628460EF0F2FA044600BF7F
:10901000204600B16FE700BF287858B13B46324682
:109020004146284605F035FF044600BF204600B102
:1090300061E700BF20465EE72DE9F041044600BF2E
:1090400014B90E20BDE8F08100BF1C2221461C4847
:10905000FEF732FA1B481A490860206860B12068A0
:109060007ADF05460DB12846ECE7164821680A6804
:1090700002604968416005E012487BDF05460DB19A
:109080002846DFE7002617E006EB86000E4901EBD5
:10909000800700BF4FF6FF70388000BF0B4800EB21
:1090A000461078600A4A0021381DFFF70DFB05467F
:1090B0000DB10320C6E7761C022EE5D30020C1E7E0
:1090C000F0470020EA400020C847002088470020E1
:1090D000E58A030010B50446204600F0BFF808B149
:1090E000204610BD1420FCE710B50446204600F0D1
:1090F000B5F820B12146034806F089F810BD0020DC
:10910000FCE700001C48002070B504460D461646DA
:1091100020460FF021FD08B9002070BD034951F829
:1091200024003246294603F023FBF6E728480020B6
:1091300010B50446204600F091F820B121460348BE
:1091400006F065F810BD0020FCE700002448002070
:1091500010B50446204600F081F820B121460348AE
:1091600006F055F810BD0020FCE700002048002064
:1091700008B50648C068C043009004488168684646
:1091800006F083F80098FEF7E9FF08BD0C480020C0
:1091900070B504460025204600F060F850B1214625
:1091A000054806F034F806460EB1022000E0012022
:1091B000054600BF284670BD1848002070B504461B
:1091C0000025204600F04AF850B12146054806F037
:1091D0001EF806460EB1022000E00120054600BF41
:1091E000284670BD1448002010B51821044805F029
:1091F000DEFF0446182C00D110BDE0B2FCE70000F1
:109200000C48002070B505460C4620460FF0A4FC23
:1092100050B1284600F022F830B1044901EB840037
:10922000294605F0F4FF70BD0020FCE72848002027
:1092300070B505460C46164620460FF08DFC50B121
:10924000284600F00BF830B1034901EB84003246A8
:10925000294603F005FA70BD2848002010B50446E1
:10926000142C01DB002010BD2146024805F0CFFF81
:10927000F9E7000010480020F8B504460E461546F0
:1092800000962B466A462146014800F081FCF8BD55
:10929000403F00202DE9FC4105460C46174620883A
:1092A0000930B84202D90C20BDE8FC8168466DDF68
:1092B000064600BF304600B1F6E700BF082021880F
:1092C00068542088401C20801B20218868542088F6
:1092D000401C208020882844DDF801100160BDF882
:1092E000051081802088801D20809DF800004008A6
:1092F00018B900202188685402E0012021886854B0
:109300002088401C20800020CEE700002DE9F84F87
:1093100004460E460025A7883846FFF739FF8146E8
:10932000FFF726FF82462188DFF8ACC15CF82130C8
:109330000A466A49DFF8A8C1A1EB0C01C9084FF041
:10934000030C4CEA014067A107F064FA6349644AE0
:10935000891AC908032242EA01403A4667A107F088
:109360004DFA208821281ED008DC102814D011289E
:109370000BD0132836D019287ED13EE03B286BD085
:10938000522854D05628F7D185E0324604F108011E
:10939000384600F0E9FA9CE0324604F1080138460C
:1093A00000F014FA95E04D494D4A891AC908042283
:1093B00042EA01405AA107F017FA00200090A08865
:1093C00069468FDF054600BFA846B8F1000F07D0F9
:1093D00000BF58A240F2CB214046FDF71DFF00BF61
:1093E00000BF76E03D493E4A891AC908032242EA95
:1093F000014058A107F0F8F96BE0207A58B9227AB9
:109400003649374BC91AC908032343EA014059A119
:1094100007F0F4F90AE0227A3049314BC91AC90839
:10942000032343EA01405BA107F0E8F951E0A0887B
:1094300000231A461946B1DF054600BFA846B8F119
:10944000000F07D000BF3BA24FF439714046FDF733
:10945000E3FE00BF00BF3CE02049214A891AC90849
:10946000042242EA014053A107F0BEF9A08813216B
:1094700076DF054600BF00E02AE0A846B8F1000FFD
:1094800007D000BF2BA24FF43B714046FDF7C4FE4E
:1094900000BF00BF1DE01149114A891AC908042202
:1094A00042EA014049A107F09FF9A088132176DF25
:1094B000054600BFA846B8F1000F07D000BF1DA2A7
:1094C0004FF43D714046FDF7A7FE00BF00BF00E02E
:1094D00000BF00BFBDE8F88F6C3B002034CD030017
:1094E00054CC0300626C65206576656E74206964F7
:1094F000203D2025643A202573000000626C652021
:10950000676170206576656E7420636F6E6E65634B
:10951000742068616E646C65203D20256400000045
:109520005048592075706461746520726571756565
:1095300073742E002E2E5C2E2E5C2E2E5C557365C1
:10954000725F4D6F64656C5C6D6F64656C5F626CBF
:10955000652E6300424C455F4741505F4556545F5E
:109560005345435F504152414D535F52455155451C
:1095700053542E00415554482053554343455353AB
:10958000207769746820737461747573203A20259C
:10959000642E000041555448204641494C555245DF
:1095A000207769746820737461747573203A20257C
:1095B000642E00004741545420436C69656E74204A
:1095C00054696D656F75742E000000004741545456
:1095D000205365727665722054696D656F75742EBF
:1095E0000000000070B504460D462088102806D003
:1095F000112808D012280ED0502810D107E020469C
:1096000009F034FA0CE0204609F060FC08E020463E
:1096100009F088FE04E0204609F010FA00E000BFDF
:1096200000BF70BD2DE9F04104460F46A688208892
:10963000102806D0112819D019283FD01A284AD14D
:1096400018E00CF099FE30460CF0F2FC30B900BF87
:1096500022A2F0210420FDF7DFFD06E0E07B0228D6
:1096600003D131462C4805F0E1FD34E030460CF0E2
:10967000A7FE30E0207A0509042D01DB012000E07F
:1096800000200246314624480C3002F0E9FF032D49
:1096900001DB012000E00020024631461E48083070
:1096A00002F0DEFF022D01DB012000E00020024677
:1096B00031461948001D02F0D3FF0CE0207A48B96A
:1096C000607AC0F3C0052A46314613480C3002F0D8
:1096D000C7FF00BF00BF00BFBDE8F0812E2E5C2E8B
:1096E0002E5C2E2E5C2E2E5C2E2E5C2E2E5C636F3E
:1096F0006D706F6E656E74735C626C655C636F6DCC
:109700006D6F6E5C626C655F636F6E6E5F737461CC
:1097100074652E63000000001848002070B50446F0
:109720000D4600BF0A48007800B970BD00BF204652
:1097300004F0AEFC00B1F8E7204604F06BF82046D8
:109740000EF0B6F8204603F0CFFA00BFEDE70000B8
:109750002841002070B505460E462888102802D002
:1097600011282CD115E01748006860B901F0FEF906
:10977000044600BF34B11448006818B120461249AD
:109780000968884700BF0F480068401C0D49086001
:1097900016E00C480068401E0A4908600846006848
:1097A00060B9FEF739FD044600BF34B106480068D1
:1097B00018B1204604490968884700BF00E000BF8F
:1097C00000BF70BD58430020544300202DE9FC47E2
:1097D00006460F469246FFF7CBFC8146002522E065
:1097E00005EB4500394901EB800040884FF6FF71D9
:1097F000884217D105EB4501344A02EB810031461E
:1098000005F0AAFE044600BFA046B8F1000F07D03D
:1098100000BF2FA24FF410714046FDF7FDFC00BFC2
:1098200000BF02E06D1C022DDAD300BFB9F1020FB8
:1098300001D0FEF79DFD0022314603200EF0CCFE44
:109840002B492C4A891AC908032242EA01402A49B5
:109850000A882AA106F0D2FF2549264A891AC90892
:10986000032242EA01402C490A882CA106F0C6FFD7
:1098700031480078AA2826D13D463146684600F096
:10988000B9FA0622691C6846FDF74DFED0B91849A1
:10989000184A891AC908032242EA014027A106F0A2
:1098A000A3FF5A20244908701149124A891AC9088D
:1098B000032242EA014020490A7825A106F09EFFD2
:1098C0000D48068000BFBDE8FC87000090430020E3
:1098D0002E2E5C2E2E5C2E2E5C557365725F4D6FA6
:1098E00064656C5C6D6F64656C5F626C652E6300B3
:1098F00034CD030054CC03000C3F002063656E742C
:1099000072616C20636F6E6E5F68616E646C653A45
:109910002025782E000000000E3F00206D616E6152
:1099200067657220636F6E6E5F68616E646C653A26
:109930002025782E00000000003B002063656E7437
:1099400072616C20636F6E6E6563742E00000000A0
:109950004C54535F424F4E445F434F4E4E203A208B
:10996000307825782E000000F8B504460D461746DD
:10997000FFF7FEFB064628783C4951F8200000908E
:109980002B783B493B4A891AC908032242EA014025
:10999000224639A106F04EFF022E02D20EB1FEF78A
:1099A000E7FC3349334A891AC908032242EA0140D5
:1099B0003E490A883EA106F021FF2D492D4A891A09
:1099C000C908032242EA014040490A8840A106F042
:1099D00015FF36480088844221D12549254A891A35
:1099E000C908032242EA014040A106F0FDFE4448B6
:1099F00000785A280ED1AA20414908701C491D4AF6
:109A0000891AC908032242EA01403D490A783DA16A
:109A100006F0F4FE4FF6FF702449088024E02B483E
:109A20000088844220D11249124A891AC9080322A7
:109A300042EA014039A106F0D7FE4FF6FF702349F4
:109A400008802F48007855280ED104F08CFB58B1BF
:109A500001F060FB0649074A891AC908032242EA55
:109A6000014033A106F0C0FEF8BD0000283D0020F3
:109A700034CD030054CC0300446973636F6E6E658C
:109A8000637465642E20636F6E6E5F68616E646CD4
:109A9000653A20307825782C20726561736F6E3AB4
:109AA0002030782578202573000000000C3F00202E
:109AB00063656E7472616C20636F6E6E5F68616E59
:109AC000646C653A2025782E000000000E3F0020CF
:109AD0006D616E6167657220636F6E6E5F68616E47
:109AE000646C653A2025782E0000000063656E7472
:109AF00072616C20646973636F6E6E6563742E00AF
:109B0000003B00204C54535F424F4E445F554E4340
:109B10004F4E4E203A20307825782E006D616E61D0
:109B200067657220646973636F6E6E6563742E007F
:109B3000646F6F722073656E736F722064697361F6
:109B4000626C652E0000000010B500F00FF902F005
:109B50004DFE02F003FFFEF789FB0DF095FD00F0CE
:109B60000FFF0AF0A7FB01203FDF00220548017824
:109B700001200EF031FD044A0021044803F064FD89
:109B800010BD0000F83E0020718702000894030019
:109B90002DE9F04186B00446884617461D4600BFB1
:109BA0001CB90E2006B0BDE8F08100BF01AA29460D
:109BB0006069FFF755F9064600BF304600B1F1E78E
:109BC00000BF4FF6FF70854201D0019808B905200B
:109BD000E8E70198007808B90820E3E73888F42816
:109BE00001DD0720DEE7002002900390049005903D
:109BF000A088ADF80800CDF81480049701208DF8F6
:109C00000A0002A92846AEDFCCE7000070B58EB08E
:109C100004460E463E4B0FCB09AD0FC500BF14B92D
:109C20000E200EB070BD00BF00BF0EB90E20F8E7C9
:109C300000BF3068A061214609A862DF054600BF69
:109C4000284600B1EDE700BF20788DF836000120EE
:109C5000ADF83400A21C0DA9A8DF054600BF2846B8
:109C600000B1DEE700BF202101A8FDF73EFC022085
:109C7000ADF8040020788DF80600F420ADF8080057
:109C80000120ADF80A008DF810009DF8110020F0B9
:109C9000080008308DF811009DF8110020F0040034
:109CA000001D8DF8110001208DF815008DF81600AB
:109CB000608804F10C0201A900F09CFB05460DB17F
:109CC0002846AEE7202101A8FDF70FFC0320ADF8E0
:109CD000040020788DF80600F420ADF8080001207B
:109CE000ADF80A008DF810009DF8110020F010006A
:109CF00010308DF8110001208DF815008DF8160038
:109D00008DF817006088221D01A900F073FB88E719
:109D1000949A030070B504460D4605B104B970BDB0
:109D20002E462088102804D0502807D057280FD15D
:109D300009E02146304608F0D1FE0AE021463046CF
:109D400009F01CFB05E02146304609F001FA00E06D
:109D500000BF00BF00BFE2E770B5044620460EF02A
:109D600019FE054605F0010070BD000038B507F08A
:109D70006FFB044600BF25463DB100BF15A240F26F
:109D800007312846FDF748FA00BF00BF00200090C9
:109D90006946012007F058F9044600BF25463DB149
:109DA00000BF0CA240F20D312846FDF735FA00BF86
:109DB00000BF684607F016FA044600BF25463DB1CD
:109DC00000BF04A240F211312846FDF725FA00BF7A
:109DD00000BF38BD2E2E5C2E2E5C2E2E5C5573657A
:109DE000725F4D6F64656C5C6D6F64656C5F626C17
:109DF000652E630070B596B004460D4615A9284639
:109E00000BF038FC061E17D10D490E4A891AC908F5
:109E1000032242EA0140BDF854200BA106F0EEFCFB
:109E200001A9BDF854000BF0E3FB0646DDF816105F
:109E30002160BDF81A00A080304616B070BD000049
:109E400034CD030054CC0300706565722069643A18
:109E500020307825782E000070B586B004461D4964
:109E600003C9CDE904011C48018804A8FFF7C2FF1B
:109E7000051E1FD19DF810009DF811109DF81220AD
:109E80009DF81330CDE90032CDE902109DF8143071
:109E90009DF815201149124E891BC908032646EA70
:109EA000014010A106F00CFD062204A9204600F096
:109EB0006FFC0CE0134951F825200849084BC91ADA
:109EC000C908032343EA01400FA106F097FC06B03E
:109ED00070BD0000689403000C3F002034CD0300E7
:109EE00054CC03007065657220616464726573739D
:109EF0003A20257820257820257820257820257877
:109F000020257800A83E00206572726F723A2025E5
:109F1000732E000070B50446FF201449087001F04C
:109F200053F8002240F6B8311148006803F096FB60
:109F300001E0FDF715FD0D480078FF28F9D00C4829
:109F4000006803F0A6FB0B49084A127851F822007A
:109F5000FDF7E2FAC5B20748044A127850F8221019
:109F60002A46204600F07CFB70BD00009040002097
:109F70004C940300043B002030B503460020042B22
:109F800023D2012A07D1012903D103F10E04E4B23F
:109F900000E00024224679B1012902D0022911D122
:109FA00004E003EB43040A4D2A550DE003EB4304A0
:109FB000074D2C44627007E003EB4304044D2C442E
:109FC000A27001E0072000BF00E0072030BD0000C4
:109FD000D05700202DE9FC4704460D461646A71C25
:109FE0004FF001080020019001A8FEF7C5FC3048A1
:109FF000406828602E4840682D498968411A2D48DC
:10A000000068401CA0EB010915E001212A4805F079
:10A0100031F904F081FB82465146274805F02AF9C0
:10A020002348406822498968411A22480068401C38
:10A03000A0EB010900BF4F45E7D8B8F1000F30D0C1
:10A040000021009176B1009921F00301491C009193
:10A05000009921F00401091D0091009964F3891110
:10A0600000910DE0009921F00301891C00910099F5
:10A0700021F00401091D0091009964F39F510091A2
:10A080000B4949680B4A12681140094A0C3202EB2D
:10A090008100009901600649496839440C3A5160D1
:10A0A00000BF9DF80400FEF76DFC4046BDE8FC874C
:10A0B00028510020104300204455002070B504466C
:10A0C0000D460A2D03D10D212046FFF7F7FFA168A9
:10A0D000481CA06020684554D4E90110884202D38E
:10A0E000204605F056FB70BD044880680349496866
:10A0F000884201D1012070470020FCE72851002050
:10A1000010B50446A079401CC0B2A0713B2828DDE0
:10A110000020A0716079401CC0B260713B2820DD36
:10A12000002060712079401CC0B22071172818DD12
:10A1300000202071A178208802F0F6FFE178491C08
:10A14000C9B2E17088420CDA0120E070A078401CAE
:10A15000C0B2A0700C2804DD0120A0702088401C33
:10A16000208010BD094909880180084989788170DB
:10A170000649C978C17005490979017103494979CE
:10A18000417102498979817170470000A03F002028
:10A1900070B50446204604F01EF8051E0CD0208839
:10A1A00006490880A0788870E078C8702079087126
:10A1B00060794871A0798871284670BDA03F002061
:10A1C00070B586B005466C1D20460EF001FCADF85A
:10A1D0001000A41C14F8010B8DF8120014F8010BE8
:10A1E0008DF8130014F8010B8DF8140014F8010B0E
:10A1F0008DF8150014F8010B8DF8160004A8FFF770
:10A20000C7FFF8B19DF816009DF815109DF81420B1
:10A210009DF81330CDE90032CDE902109DF81230DF
:10A22000BDF810200B490C4E891BC908032646EACD
:10A2300001400A4906F044FB072209A1284600F024
:10A240000FFA04E0062208A1284600F009FA06B039
:10A2500070BD000034CD030054CC0300F4B40300FF
:10A2600073756363657373006661696C6564000090
:10A270007CB50446204603F019FC054600236A46D7
:10A28000092109F0E9FD052805D1012202480178DC
:10A290002046FEF7CDFF7CBD044100207CB504467E
:10A2A0000E460020019042F6A620ADF804000120E1
:10A2B0008DF806000748006800906A4601A920460C
:10A2C000A0DF05462DB90122034801782046FEF79C
:10A2D000AFFF7CBDF0940300054100200146887962
:10A2E000012809D10879012806D1488842F60212CE
:10A2F000904201D1012070470020FCE710B50446D0
:10A30000084800884FF6FF71884205D1072206A150
:10A31000204600F0A5F904E0072205A1204600F040
:10A320009FF910BD0C3F0020696E76616C69640076
:10A33000636F6E6E656374004FF0FF31054A42F83B
:10A340002010082804DBFF23A0F108015A325354DF
:10A3500070470000804B00200146024850F8210061
:10A3600070470000804B00202DE9F04F03460C465B
:10A370004FF0FF390AB1002000E0082084460AB1FE
:10A38000082000E00C208046614624E0154850F883
:10A390002100401CF0B91D460846274616464FFAD4
:10A3A00080FBDFF840A00AF1300A0AF805B0DFF8B8
:10A3B00034A04AF820704EB94FFA85FBA0F1080A84
:10A3C000DFF820E00EF15A0E0EF80AB000BF4FFA87
:10A3D00081F902E0491C4145D8D300BF4846BDE899
:10A3E000F08F0000804B0020014601484056704726
:10A3F000B04B002070B590B006460C461546A078CC
:10A4000018B901208DF80E0002E0A0788DF80E003A
:10A410002088ADF80C0000200290607C02A90DF0AD
:10A4200081F9A07C0DF109010DF07CF9E07B08B108
:10A43000012000E000209DF80A1060F3C3018DF8B0
:10A440000A10207C08B1012000E000209DF80A10CD
:10A4500060F304118DF80A10207B08B1012000E0A0
:10A4600000209DF80A1060F300018DF80A10207D8D
:10A4700008B1022000E001209DF80A1060F34201BB
:10A480008DF80A101C2109A8FDF72FF8607BC0F396
:10A49000001018B9607BC0F34010F8B100200090A4
:10A4A000E07C0DF101010DF03DF900BF9DF80000C9
:10A4B00020F00F00401C8DF800009DF8000020F0F7
:10A4C000F00010308DF8000000BF9DF8020020F071
:10A4D0000600801C8DF80200CDF838D0607B8DF826
:10A4E0002400A07B8DF82500142104A8FCF7FDFFB3
:10A4F00003A8049002A80590A088ADF81C00A068ED
:10A5000020B1E088ADF81800A0680890A069002884
:10A5100049D000200190A0690088ADF82C00A06906
:10A520004088ADF82E00A06940680A9001A80D90FF
:10A53000A169087B01A90DF0F5F8A169487B0DF12F
:10A5400005010DF0EFF8A069807A08B1012000E064
:10A5500000209DF8061060F3C3018DF80610A06975
:10A56000C07A08B1012000E000209DF8061060F3D9
:10A5700004118DF80610A069007A08B1012000E0EE
:10A5800000209DF8061060F300018DF80610A06908
:10A59000807B08B1022000E001209DF8061060F3E6
:10A5A00042018DF80610E06908B1E0690C902B4675
:10A5B00004AA09A93046AADF10B070BD2DE9F04108
:10A5C00004460D464FF6FF76304684420AD14FF4DA
:10A5D0008071284604F0EBFD86B2B6F5807F10D17D
:10A5E00026460EE0FF2C0CDC2146284604F0C8FD70
:10A5F00080F001070FB1204601E04FF6FF700646DC
:10A6000000BF3046BDE8F08170B505460DB9094C74
:10A6100001E0084C083409E0204603F0FBFD064643
:10A6200006B904E028467168884700BFF4E700BF18
:10A6300070BD0000744B002010B504462CB90120F9
:10A64000064948700020FFF7DFFF012C04D10120EC
:10A6500002498870FFF7D8FF10BD00006C4B002046
:10A66000F0B589B004460E461546FF2224216846FF
:10A67000FCF734FF21781E4A52F83100FCF74CFFFA
:10A68000074620781A4A52F830103A460DF1060073
:10A690000DF036FD2178164A52F83100FCF73CFFE8
:10A6A0000DF1060147182A4631463846FCF728FFC7
:10A6B00021780F4A52F83100FCF72EFF2844C7B228
:10A6C00022793B46AA2168460EF066FA2178084AAC
:10A6D00052F83100FCF720FF801D2844801C87B20F
:10A6E000628839466846FEF7C7FD09B0F0BD000034
:10A6F0000440002010B504462078084A02EBC00050
:10A700004168204688470649064A891AC908032233
:10A7100042EA014004A106F067F810BD04400020A1
:10A7200034CD030054CC0300636D64206A756D70F2
:10A73000206F7665722E000010B5024806F00AFB05
:10A7400010BD000078CD030010B5024806F058FB9C
:10A7500010BD000078CD030010B5024806F05BFB89
:10A7600010BD000078CD030010B50446002221463C
:10A77000014806F0F7FA10BD78CD030010B5044685
:10A780002146024806F05FFB10BD000078CD0300B3
:10A79000F0B589B004460E461546FF2224216846CE
:10A7A000FCF79CFE21781E4A52F83100FCF7B4FEFB
:10A7B000074620781A4A52F830103A460DF1060042
:10A7C0000DF09EFC2178164A52F83100FCF7A4FEE9
:10A7D0000DF1060147182A4631463846FCF76CFE53
:10A7E00021780F4A52F83100FCF796FE2844C7B290
:10A7F00022793B46AA2168460EF0CEF92178084A14
:10A8000052F83100FCF788FE801D2844801C87B276
:10A81000628839466846FEF72FFD09B0F0BD00009A
:10A82000044000202DE9F047024613468C46D3E948
:10A830000245DCE90267B6EB040877EB050002D3BA
:10A840000120BDE8F0870020FBE733B58BB005465B
:10A85000002000900C9878B100240BE021460CA851
:10A8600004F0D5FC28B1009A501C009001A820F8F3
:10A870001240641C142CF1D32C2269462846FCF7A4
:10A880001BFE0DB030BD01460888062808DB08888D
:10A89000B0F5486F06DD08884FF6FF72904201D090
:10A8A000072070474888062808DB4888B0F5486FBD
:10A8B00006DD48884FF6FF72904201D00720F0E78E
:10A8C00008884FF6FF72904208D04888904205D021
:10A8D00008884A88904201DD0720E2E70020E0E78F
:10A8E0002DE9F04107460D46144698462088801D04
:10A8F000404502D90C20BDE8F0813846FFF7C3FF80
:10A90000064600BF304600B1F5E700BF05202188AC
:10A9100068542088401C2080122021886854208898
:10A92000401C20802288511938880EF039F821887F
:10A93000084420802288511978880EF031F8218847
:10A94000084420800020D6E710B5044600BF04A2CA
:10A9500040F205212046FCF75FFC00BF10BD00005F
:10A960002E2E5C2E2E5C2E2E5C557365725F4D6F05
:10A9700064656C5C6D6F64656C5F626C652E630012
:10A9800030B587B01C216846FCF7AFFD0020009071
:10A990004FF4A03001904FF4F020029003208DF886
:10A9A0000C000020ADF80E008DF810000A4805904C
:10A9B0000A4806906846FEF73FFB044600BF25465E
:10A9C0003DB100BF06A24FF407712846FCF724FCF6
:10A9D00000BF00BF07B030BDF129030049A9020044
:10A9E0002E2E5C2E2E5C2E2E5C557365725F4D6F85
:10A9F00064656C5C6D6F64656C5F626C652E630092
:10AA0000F8B505460C46607A88B9207A10B9104826
:10AA1000476801E00E4887682A4639466068FDF7B6
:10AA200043FF064616B130460CF090FB0EE00020C6
:10AA300020720748406948B101208DF80000ADF848
:10AA40000250034841696846884700BFF8BD0000CE
:10AA5000F0470020F0B585B004460D4617461E4667
:10AA600014220B496846FCF727FDADF802408DF82B
:10AA70000850ADF80A708DF80C6000220548017886
:10AA80002046FEF7D5FB684601F07CF905B0F0BD25
:10AA90001C9603001142002010B586B004462088A1
:10AAA00008F08CFE00BB2088FEF71EFB30B9208822
:10AAB000012241F2060100F0BCFF15E020880022CF
:10AAC0000A490978FEF7B4FB03208DF804002088BA
:10AAD000ADF8060000208DF80C0000218DF80D1057
:10AAE00001A801F04FF900BF06B010BD11420020CF
:10AAF000F8B505460E4619480078A0B9184A002155
:10AB00001848FDF7E1FD044600BF27463FB100BFEE
:10AB1000154A40F205113846FCF77EFB00BF00BF26
:10AB200001200E49087000200090ADF800508DF80B
:10AB3000026010210B48009A0068FDF7B5FE04463C
:10AB400000BF27463FB100BF074A4FF4887138461F
:10AB5000FCF762FB00BF00BFF8BD0000F841002019
:10AB6000B5AF0200C495030078BF030010B5012201
:10AB700000210846FFF700FA044600BF1CB1072C6D
:10AB800001D0204610BD00BF072202210120FFF79F
:10AB9000F3F9044600BF1CB1072C01D02046F1E7B1
:10ABA00000BF042202210020FFF7E6F9044600BF9F
:10ABB0001CB1072C01D02046E4E700BF0020E1E7EC
:10ABC0002DE9FF4105460C4629492A4A891AC90838
:10ABD000042242EA01402B46224627A105F01AFE34
:10ABE000002002900390ADF80840ADF80A400090B4
:10ABF00001906A4602A9284690DF0646002E32D010
:10AC0000304606F077FD074619491A4A891AC908DD
:10AC1000012242EA01403B462A46234905F0FAFD5B
:10AC2000BDF8000010B9BDF8020068B1BDF80230EF
:10AC3000BDF800200E490F4FC91BC908012747EA7C
:10AC400001401AA105F0E6FDBDF8040058B1BDF8B9
:10AC500004200749074BC91AC908012343EA0140E8
:10AC6000224905F0CBFD304604B0BDE8F08100007C
:10AC70006CCC030054CC03005570646174696E673A
:10AC80002064617461206C656E67746820746F2045
:10AC90002575206F6E20636F6E6E656374696F6ECD
:10ACA00020307825782E00008CB903005468652088
:10ACB0007265717565737465642054582F525820FD
:10ACC0007061636B6574206C656E6774682069736E
:10ACD00020746F6F206C6F6E672062792025752F4E
:10ACE0002575206F63746574732E0000D8B9030056
:10ACF00070B504460D4628782070698888B2611CBA
:10AD000008F0B6FB2879E070211DA86808F0B4FBB4
:10AD10000B480078552812D0A88904F1080108F0E2
:10AD2000A7FBA87BA072E87BE072287C2073687C7C
:10AD30006073A87CA07320200BF0E6FAE07370BD6E
:10AD4000003B002070B58EB005460C461A261DB992
:10AD500001A800F0B3F901ADFF22314607A8FCF7C6
:10AD6000BDFB29460DF12200FFF7C2FF52480078D3
:10AD7000552801D0042C0CD112232246DD2107A82E
:10AD80000DF00AFF4D480288314607A8FEF774FA15
:10AD900090E0012C01D0032C23D112232246DD2187
:10ADA00007A80DF0F9FE4649464A891AC908032248
:10ADB00042EA0140324607A905F0A2FC4049414A57
:10ADC000891AC908032242EA01403F490A883FA183
:10ADD00005F014FD3C480288314607A8FEF74CFAFE
:10ADE00068E035480078AA280FD13549354A891AD4
:10ADF000C908032242EA01403BA105F0F5FC1822F4
:10AE000001A9202000F05CFC54E02C4800884FF69B
:10AE1000FF71884216D02A492A4A891AC908032292
:10AE200042EA014039A105F0DFFC12230422DD21B2
:10AE300007A80DF0B1FE21480288314607A8FEF7A9
:10AE40001BFA37E01E491F4A891AC908032242EA41
:10AE5000014035A105F0C8FC12230322DD2107A81B
:10AE60000DF09AFE1649174A891AC908032242EAC8
:10AE70000140324607A905F043FC134802883146D9
:10AE800007A8FEF7F9F901A800F08CFA002243F6B2
:10AE900098212C48006802F0E1FB0949094A891A07
:10AEA000C908032242EA014027A105F09DFC0120C8
:10AEB0002C4908700EB070BD003B00200E3F0020F2
:10AEC00034CD030054CC03000C3F002063656E7446
:10AED00072616C20636F6E6E2068616E646C6520B9
:10AEE0003D203078257800006E6F2063656E7472A7
:10AEF000616C20636F6E6E6563742C2073746F7267
:10AF000061676520646174612E00000073656E6482
:10AF100020646F6F72206461746120746F206D61B2
:10AF20006E616765722E000073656E6420646F6FDA
:10AF300072206461746120746F2063656E74726145
:10AF40006C2E00004894030061636B2074696D6F80
:10AF50007573742074696D65722073746172742ED8
:10AF600000000000C83F00202DE9F04105460F46D3
:10AF70000F4C0121204604F0B4F9064600BF00BF83
:10AF800000BF00BFBFF35F8F00BF00BF00BF0EB99F
:10AF9000012000E0002040B1284603F029FB08B161
:10AFA000BDE8F081024805F037FE00BFF8E7000079
:10AFB000FC40002038B5044600949DF80210BDF80E
:10AFC0000000FCF7FDFF38BD70B50C490C4A891A2A
:10AFD000C908032242EA01400AA105F005FC0AF073
:10AFE0008DFC044600BF254635B100BF09A299215A
:10AFF0002846FCF711F900BF00BF70BD34CD030037
:10B0000054CC0300457261736520626F6E647321D6
:10B01000000000002E2E5C2E2E5C2E2E5C557365DB
:10B02000725F4D6F64656C5C6D6F64656C5F626FC1
:10B030006E642E630000000070B506460D4616B122
:10B040004FF4064070BD287920B1012809D00228AC
:10B0500015D111E00220287128460BF047F804466C
:10B0600010E0284601F022FA044648F209608442C2
:10B0700001D141F61D5405E041F61D5402E048F2AD
:10B080000E6400BF00BF2046DCE770B5044620799F
:10B090003D2802D141F23D0001E04FF488500546C1
:10B0A00020880022294603F079F970BD10B50248C6
:10B0B00005F0A6FE10BD000050CD030010B50446FB
:10B0C00000222146014805F04DFE10BD50CD030081
:10B0D00010B504462146024805F0B5FE10BD00003B
:10B0E00050CD030008B50120074B0222002100903B
:10B0F000142002F097F8142005F030F8C0B203498C
:10B1000008700349087008BD1D4503009C3F0020DE
:10B110009D3F002010B5142002F0EAFA10BD000097
:10B1200010B586B0044618221D496846FCF7C4F9DC
:10B130001C491D4A891AC908032242EA01401BA181
:10B1400005F052FB142000BF202801D2820602E045
:10B1500000F01F00194A114600BFD1F81025C24067
:10B1600002F001028DF80020FDF74AFE00B2ADF8B2
:10B17000020045208DF8040011480078552808D0B9
:10B1800010480068401C0F490860029003A8FEF7B1
:10B19000E9FF21796846FFF7D5FD06B010BD000034
:10B1A0005094030034CD030054CC0300646F6F72DD
:10B1B0002071756572696E672E00000000030050F3
:10B1C000003B0020703F00202DE9F043C3B004464F
:10B1D00020200BF099F807465C495D4A891AC90896
:10B1E000032242EA01403A465AA105F007FB002F2C
:10B1F0007ED0FF22F4216846FCF770F96E460025E8
:10B20000002058490870B61D2178574A52F831007D
:10B21000FCF782F980462078534A52F830104246B3
:10B2200030460CF06DFF21784F4A52F83100FCF7A0
:10B2300073F906444FF0010846E018233DAA414641
:10B24000202001F05FF93DA93046FFF751FD12368D
:10B25000681CC5B243480078401C42490870032D61
:10B260002ED12178404A52F83100FCF755F905EB10
:10B27000C50100EB410000F0FF0922794B46AA21ED
:10B2800068460DF089FC09F108023049304BC91AB3
:10B29000C908032343EA0140694605F031FA628890
:10B2A00009F108016846FDF7E7FF002521782E4ADD
:10B2B00052F83100FCF730F90DF10601461800BFD5
:10B2C00008F101001FFA80F8B845B6DD85B3217892
:10B2D000254A52F83100FCF71FF905EBC50100EBD8
:10B2E000410000F0FF0822794346AA21684600E0A9
:10B2F0001FE00DF051FC08F108021449144BC91A63
:10B30000C908032343EA0140694605F0F9F9628858
:10B3100008F108016846FDF7AFFF00252178124AC1
:10B3200052F83100FCF7F8F80DF10601461800BF9D
:10B3300009E00649064A891AC908032242EA01407F
:10B340000AA105F051FA43B0BDE8F08334CD030003
:10B3500054CC0300646F6F7220726573742025648F
:10B360002E000000F03F0020044000206E6F20728D
:10B3700065636F72642073746F72616765642E0019
:10B3800010B5024805F03CFD10BD000064CD03007F
:10B3900010B5044600222146014805F0E3FC10BD2B
:10B3A00064CD030010B504462146024805F04BFD6C
:10B3B00010BD000064CD03002DE9F04E86B00420DE
:10B3C0008DF8040000208DF8050003208DF806009C
:10B3D00006208DF807000020029001208DF80C0057
:10B3E000642417490868D0F81015CDB200BFAB46E9
:10B3F0004FF47A50A4FB00695A4630464946FCF7A0
:10B4000041F807463846074604970220ADF8140075
:10B4100001208DF816000B4A01A909480CF0C8FF5D
:10B42000824600BF544634B100BF07A2A621204681
:10B43000FBF7F2FE00BF00BF06B0BDE8F08E0000D3
:10B44000149403002D8103002E2E5C2E2E5C2E2ED4
:10B450005C557365725F4D6F64656C5C7573657286
:10B460005F68617264776172652E6300F0B58BB0BE
:10B4700005460E4617460020089009900A9006904F
:10B480000790049005900190029003906449654AEA
:10B49000891AC908032242EA01403B462A4662A1B2
:10B4A000009605F0C7F906AB08AA3946284600F011
:10B4B00017FF04467CB1A4F50641644A52F82130D6
:10B4C0005749584A891AC908032242EA01402246CC
:10B4D0005FA105F09FF904A908A800F02BFF04461E
:10B4E0007CB1A4F50641594A52F821304C494D4AE5
:10B4F000891AC908032242EA014022465AA105F0EE
:10B5000089F9ADF80450ADF806600598029006215F
:10B510000391002006900790089009900A9006ABCE
:10B5200008AA3146284600F0DBFE04467CB1A4F5AB
:10B530000641464A52F8213039493A4A891AC9081F
:10B54000032242EA0140224641A105F063F94C483A
:10B55000007820F020004A49087001A908A800F0EE
:10B5600011FF04467CB1A4F50641384A52F8213057
:10B570002B492C4A891AC908032242EA0140224673
:10B5800040A105F047F901E0FCF7EAF93C480078F2
:10B59000C0F340100028F7D00020069007900890D4
:10B5A00009900A9006AB08AA3946284600F098FE92
:10B5B00004467CB1A4F50641244A52F821301849CA
:10B5C000184A891AC908032242EA0140224620A1EA
:10B5D00005F020F92A48007820F004002849087076
:10B5E00008A800F059FE04467CB1A4F50641174AAC
:10B5F00052F821300A490B4A891AC908032242EA43
:10B600000140224626A105F005F901E0FCF7A8F962
:10B610001B480078C0F380000028F7D00BB0F0BDC5
:10B6200034CD030054CC030066696C652069642046
:10B6300025642C206B6579207372632025642C208F
:10B640006B6579206465732025642E00AC40002072
:10B6500066696E6420726573756C743A2030782563
:10B66000782C2025732E00006F70656E2072657334
:10B67000756C743A20307825782C2025732E0000C4
:10B68000E840002075706461746520726573756CA4
:10B69000743A20307825782C2025732E0000000085
:10B6A0007265636F72642064656C65746520726591
:10B6B00073756C743A20307825782C2025732E0011
:10B6C00070B586B004460D461646002003900490DF
:10B6D0000590009001900290ADF80C4020460AF0D1
:10B6E00013FE401CADF80E000495F01C8108059176
:10B6F00003A968460AF06EFE06B070BD10B50021C1
:10B70000034803F0EEFD044684F3100010BD000072
:10B710004455002070B505460C464FF4803000FAC1
:10B7200004F1284600F0B4FA70BD70B505460C4629
:10B730004FF4A07000EB840086B23146284600F03A
:10B74000C7FA70BD2DE9F04704460D4616461F4660
:10B750004FF4803000FA05F84FF4A07000EB85003C
:10B760001FFA80F926F07F464146206805F01AFC52
:10B770004146206805F010FC4946206805F005FCAC
:10B7800032462946206805F0F7FB4146206805F05F
:10B7900006FC1FB14146206805F007FCBDE8F087B4
:10B7A00010B50446206805F0ECFB10BD2DE9F0470C
:10B7B00004460D4617466079324941F82070607999
:10B7C000314901EBC000007968B108262F49304AA1
:10B7D000891AC908022242EA01402EA105F004F8A4
:10B7E0003046BDE8F08729882068C0F8081500BFFA
:10B7F00094F90420AB7810461946002808DB4FEA7C
:10B80000417C4FEA1C68DFF8B0C00CF800800BE008
:10B810004FEA417C4FEA1C69DFF8A0C000F00F0836
:10B82000A8F104080CF8089000BF00BF94F90410B8
:10B83000084600280DDB00BF00BF00F01F030122F7
:10B840009A4043099B0003F1E023C3F8002100BFA5
:10B8500000BF00BF00BF012061790B4A02EBC101AC
:10B8600008716079114641F8304000260749084ABE
:10B87000891AC908032242EA014011A104F0B4FF69
:10B880003046AEE78442002088420020F4CC03001A
:10B8900054CC030052544320696E7374616E636527
:10B8A00020616C726561647920696E697469616C8C
:10B8B000697A65642E00000000E400E018ED00E005
:10B8C0005254433A20696E697469616C697A65649F
:10B8D0002E00000010B5014691F90400002807DB96
:10B8E00000F01F0301229A40024B440943F8242030
:10B8F00000BF10BD00E200E070B505460C462246D0
:10B900000221284600F0D0F970BD10B504464FF46E
:10B910008271204600F0DCF910BD10B5044600210C
:10B92000206805F045FB10BD10B5044604212068D1
:10B9300005F03EFB10BD2DE9F84F0446884615463C
:10B9400099464FF4803000FA08FA4FF4A07000EBEB
:10B9500088001FFA80FB25F07F455146204600F005
:10B9600097F9206805F00DFB06464146206805F072
:10B97000FDFA009032464146206805F0FDFA59462E
:10B98000206805F002FB314600980CF0C9FB012845
:10B9900006D1102005F09CFF5946206805F0F5FA05
:10B9A000206805F0EEFA0646314628460CF0B8FB52
:10B9B00007465146206805F0F2FA012F0FD16A1CA4
:10B9C0004146206805F0D8FA102005F081FF206874
:10B9D00005F0D7FAB04225D00D20BDE8F88F2A46F1
:10B9E0004146206805F0C8FA206805F0CAFA064604
:10B9F000681E31460CF094FB07466FF07F40A0EBC9
:10BA00000900B84201D20D20E7E75FB96A1C414640
:10BA1000206805F0B1FA206805F0B3FAB04201D011
:10BA20000D20DAE701225146204600F03DF90020C2
:10BA3000D3E770B506460C4615462B462246002134
:10BA40003046FFF707F870BD10B504460549064AB1
:10BA5000891AC908032242EA014004A104F0C4FE85
:10BA600010BD000034CD030054CC0300456E746556
:10BA70007220444655206D6F64652E002DE9F84311
:10BA800005460E461746984669461048006803F07A
:10BA900030FB044614B90420BDE8F8831C2120467D
:10BAA000FBF723FD012020712560C4F808800848B9
:10BAB0000068B6FBF0F0E060676169460348006823
:10BAC00003F041FB0AF012FA0020E5E76C9803004E
:10BAD0006098030010B50446D4E90321501828DF0C
:10BAE00010BD0278072A38D2DFE802F037040712C7
:10BAF000222B340000220A7030E001220A700389F0
:10BB00008B818388CB81C2688A6000230B7425E017
:10BB100002220A7003898B818388CB81C2688A6084
:10BB2000827D062A01D1012300E000230B7415E079
:10BB300003220A70C3888B810389CB81C2688A6023
:10BB40000CE004220A70C3888B810023CB81002281
:10BB50008A6003E005220A7000E000BF00BF704762
:10BB600070B50546002409E0064850F8240020B1CD
:10BB7000044850F8241028468847641C042CF3D34A
:10BB800070BD00002C4D002030B587B004460D4636
:10BB90002068806808B907B030BD182101A8FBF7FC
:10BBA000A4FC0295A0680690207910B1012815D157
:10BBB00009E001208DF8040020690390E0680490FA
:10BBC000606905900BE002208DF804000749E068E9
:10BBD0000968484303906069059000E000BF00BF1A
:10BBE0002068816801A8884700BFD4E760980300F7
:10BBF000F0B585B005460C461646002C3ED0112CFB
:10BC00003CD0082C3AD00D2C24D11D491D4A891A4C
:10BC1000C908022242EA01402A461B4904F0EEFD0F
:10BC20002A460421684603F0A9F92EB1307800F0C5
:10BC3000010008B1012000E002208DF80800002179
:10BC40008DF80C1041F20111ADF80A10684600F0B1
:10BC5000ADF813E0204605F04DFD07460849094AB6
:10BC6000891AC908012242EA01402B463A4607498F
:10BC700004F0D0FD214628460BF0D6FA05B0F0BD01
:10BC80009CCC030054CC030010C4030020C5030067
:10BC900070B504460D462946206805F07DF9294611
:10BCA000206805F07FF970BD70B504460E46154654
:10BCB0003146206805F073F91DB13146206805F062
:10BCC00074F970BD10B50446204600F06FF810BD41
:10BCD00070B505460C462868015929B121462868E7
:10BCE00005F053F9012070BD0020FCE770B5044653
:10BCF000608801F0DBFEA080002505E0044850F8D4
:10BD00002510204688476D1C002DF7D070BD00001F
:10BD1000F440002070B50446A08801F0F1FD608079
:10BD2000002505E0044850F82510204688476D1C82
:10BD3000002DF7D070BD00000841002070B5054609
:10BD4000002405E0044850F8241028468847641C65
:10BD5000022CF7D370BD00003095030070B5054686
:10BD6000002405E0054850F8241028468847641C44
:10BD7000034800788442F5DB70BD0000204B0020B2
:10BD80003641002070B50446608801F08FFEA08027
:10BD9000002505E0044850F82510204688476D1C12
:10BDA000002DF7D070BD0000DC95030070B505468E
:10BDB000002405E0044850F8241028468847641CF5
:10BDC000002CF7D070BD00005496030070B50446F7
:10BDD00021786C4D55F821300A466B496B4D491B53
:10BDE000C908032545EA014069A104F013FD207844
:10BDF000062872D2DFE800F0032BA449678660684A
:10BE000088B96848007820F00100401C6549087036
:10BE10005D495E4A891AC908032242EA014062A1CB
:10BE200004F0E2FC12E06168A1F50641634D55F8AB
:10BE300021306168A1F506425349544D491BC90898
:10BE4000032545EA01405EA104F0E4FC97E0606848
:10BE500038B95448007820F00200801C514908701D
:10BE600012E06168A1F50641544D55F82130616832
:10BE7000A1F506424449454D491BC908032545EA39
:10BE800001404FA104F0C6FC79E0606838B945482C
:10BE9000007820F00400001D4249087012E061683B
:10BEA000A1F50641454D55F821306168A1F50642DE
:10BEB0003549364D491BC908032545EA014040A1D3
:10BEC00004F0A8FC5BE0606840B93648007820F0D8
:10BED000080008303349087013E04FE06168A1F5AD
:10BEE0000641364D55F821306168A1F506422649D4
:10BEF000264D491BC908032545EA014030A104F03D
:10BF000089FC3CE0606838B92648007820F01000D1
:10BF100010302449087012E06168A1F50641274DF0
:10BF200055F821306168A1F506421749174D491BA4
:10BF3000C908032545EA014021A104F06BFC1EE07D
:10BF4000606838B91748007820F020002030154983
:10BF5000087012E06168A1F50641184D55F82130CE
:10BF60006168A1F506420849084D491BC908032527
:10BF700045EA014012A104F04DFC00BF00BF00BF24
:10BF800070BD00009440002034CD030054CC030069
:10BF9000666473206576656E742069642025643A52
:10BFA00020257300E840002066647320696E697480
:10BFB00020737563636573732E000000AC4000202E
:10BFC000666473206572726F7220747970652025C3
:10BFD000643A20257300000010B586B00446142191
:10BFE00001A8FBF782FAA08900F07AFAADF8080000
:10BFF000207806285ED2DFE800F05D0304052E4AB3
:10C0000000BF00BFA08900F070FA18B9E0890AF0FB
:10C01000A6F9F8B1E0890AF09FF98DF80C002078B4
:10C02000032801D1012100E000218DF80D10A16845
:10C030000491606830B909208DF8040001218DF861
:10C04000141004E00A208DF804006168059101A82D
:10C0500007F04AFE2FE0A08900F047FAB0B1E0896E
:10C06000A0B9606838B90B208DF80400BDF808004D
:10C0700008F08EF804E00C208DF80400606803904E
:10C0800001201149087001A807F02EFE13E0606836
:10C0900018B914208DF8040004E015208DF8040070
:10C0A000606803904FF6FF70ADF8080001A807F034
:10C0B0001BFE00E000BF00BF0348007808B107F096
:10C0C000ADFF06B010BD00001541002038B5054693
:10C0D0001048007810B948F2016038BD4FF6FF7083
:10C0E000854202D148F20360F7E7684609F0DEFDB9
:10C0F000044614B948F20760EFE7052020700120DC
:10C100002071E580684609F0E1FD09F0E3FE0020BA
:10C11000E3E700009042002038B50E48007810B9DF
:10C1200048F2016038BD684609F0C0FD044614B904
:10C1300048F20760F6E706202070684609F0C6FD61
:10C140000548007810B101200349087309F0C2FEC8
:10C150000020E7E790420020384E002070B586B0FE
:10C16000142101A8FBF7C1F93048007828B101A8D3
:10C17000FFF7F6FC002006B070BD2C48001D03F050
:10C1800072F808B10020F6E700F0E4FA06460EB1B6
:10C190003046F0E709F0C6FD07F058FA054625B12C
:10C1A000022D03D0062D12D107E000BF00201F4949
:10C1B0000870486048F20A60DDE701201B490870FA
:10C1C0000020486001A8FFF7CBFC0020D3E700BFA8
:10C1D00000BF684609F06AFD044614B948F20760DA
:10C1E000C9E7012020700C2D16D2DFE805F01506F6
:10C1F000150715111512150A0E0B00BF002020712E
:10C200000BE000BF0320207107E00220207104E052
:10C2100000BF0120207100E000BF00BF684609F0A8
:10C2200055FD09F057FE0020A5E7000090420020D0
:10C2300038B5044614B948F2046038BD6946204652
:10C2400009F072FF08B3BDF8000000EB800011494F
:10C2500001EB8000C068A8B1A07A98B1BDF80000D9
:10C2600000EB800001EB8000C068401EBDF80010AC
:10C2700001EB8101074A02EB8101C8600020A07236
:10C28000002504E048F2056501E048F2096528460A
:10C29000D3E70000104E002038B505460F4800785F
:10C2A00010B948F2016038BD15B948F20460FAE7E8
:10C2B000684609F0FBFC044614B948F20760F2E74F
:10C2C00004202070002020712968E160684609F090
:10C2D000FDFC09F0FFFD0020E5E700009042002092
:10C2E0007FB514461D462B46224601A9684609F033
:10C2F000B3FE04B070BD37B50C4615462B4622463A
:10C300006946002009F0A8FE3EBD37B50C4615462B
:10C310002B4622460021684609F09EFE3EBD02469D
:10C3200002B111B948F2046070471068086000203B
:10C33000FAE70000F8B504460D4604B115B948F215
:10C340000460F8BD6946204609F0EEFEA0B16668BB
:10C35000BDF8001001EB8101094A02EB810101F1F6
:10C360000C00012102F086FF2E6060680C306860CE
:10C370000120A0720020E4E748F20960E1E7000034
:10C38000104E002070B504460D4614B948F2046002
:10C3900070BD03230022294620460CF0DDFEF7E79E
:10C3A00070B504460D4602230022294620460CF0B3
:10C3B000D3FE70BD70B5054609480068042802D157
:10C3C00048F20B6409E007480549096840F8215024
:10C3D0000121034802F04EFF0024204670BD0000FA
:10C3E0009C4200202C4D00202DE9F84304464FF4D8
:10C3F000806800262B48007818B948F20160BDE833
:10C40000F88314B948F20460F9E712212046FBF7DB
:10C410006CF80320208000253FE005EB85002249D1
:10C4200001EB8000008905EB85011F4A02EB8101C9
:10C430004989084487B205EB850102EB8101486810
:10C4400007F080F8032802D12088401E20806088F1
:10C4500005EB8501144A02EB8101C968084460803C
:10C46000208905EB850102EB81014989084420817F
:10C47000608938446081C7F5806086B2A089B04287
:10C4800000DAA68104F11000831EA21D211D009078
:10C49000284609F0F9FF681C85B2022DBDDB00209B
:10C4A000ADE7000090420020104E00203EB504464B
:10C4B0000A4B6A460021A01D09F0CEFD054635B99C
:10C4C000064A9188019809F0A9FE054603E0034851
:10C4D00000210160416028463EBD0000AC420020C2
:10C4E0000146A1F5404080B270470146B1F5404F8A
:10C4F00005DB4FF6FE70814201DC01207047002011
:10C50000FCE700002DE9F04188B005460E461746CD
:10C5100098460020039004900590019002902C49C9
:10C520002C4A891AC908032242EA014033462A46A6
:10C5300029A104F06FF901AB03AA31462846FFF7A1
:10C54000CFFE04467CB1A4F50641294A52F82130B9
:10C550001F49204A891AC908032242EA014022469B
:10C5600024A104F057F906A903A8FFF7E3FE044647
:10C570007CB1A4F506411E4A52F821301449154AEF
:10C58000891AC908032242EA014022461FA104F089
:10C5900041F9424638460799FAF78EFF03A8FFF79C
:10C5A00047FE04467CB1A4F50641114A52F82130F9
:10C5B0000749084A891AC908032242EA014022466B
:10C5C00018A104F027F9204608B0BDE8F08100006A
:10C5D00034CD030054CC030066696C652069642087
:10C5E00025642C206B6579207372632025642E00EE
:10C5F000AC40002066696E6420726573756C743A95
:10C6000020307825782C2025732E00006F70656E01
:10C6100020726573756C743A20307825782C20254B
:10C62000732E0000636C6F736520726573756C7494
:10C630003A20307825782C2025732E0010B504463A
:10C640002078182802D1FCF7CFFD207010BD10B55E
:10C6500004462078182802D1FCF7C6FD207010BDD2
:10C6600070B505460E46144624B13146284602F000
:10C67000DDFD03E03146284602F073FD70BD30B5A4
:10C6800004461088C01C984201D90C2030BD0220FD
:10C69000158848551088401C108001201588485581
:10C6A0001088401C108015884C551088401C108044
:10C6B0000020EBE72DE9F04106460C461546002721
:10C6C000112C01D1012700E0002765B13A460A4844
:10C6D00001783046FCF7ACFD00220848017830466E
:10C6E000FCF7A6FD05E03A46044801783046FCF721
:10C6F0009FFDBDE8F08100002F4200202C42002069
:10C7000010B54FF4405400F009F803490861084699
:10C710000069001BC86010BD6043002010B540F6E2
:10C72000F8700068401C18B94FF01020406902E012
:10C7300040F6F870006803464FF080500169426986
:10C74000581C08B1184601E002FB01F004462046DF
:10C7500010BD000010B5FFF7D3FF002202490348C7
:10C7600003F0D6F910BD000070980300604300206C
:10C77000F7B50D4617460DB90020FEBD00260098FE
:10C7800068B1002409E02146684602F040FD18B176
:10C79000A0B23946A847761C641C142CF3D330464B
:10C7A000EBE7000010B504462020FAF77BFF0549AF
:10C7B000054A891AC908032242EA014003A104F08C
:10C7C00013F810BD34CD030054CC030066696C65CA
:10C7D00020636C656172206F7665722E0000000028
:10C7E00010B50446606809F0CBFA10BD3EB500BF35
:10C7F0009DF8000020F00F00401C00909DF8000004
:10C8000020F0F0001030009000BF182218A16846F8
:10C810007CDF044600BF254635B100BF1BA2FB21CB
:10C820002846FAF7F9FC00BF00BF002001900290F3
:10C830004FF43470ADF804004FF44870ADF80600C2
:10C840000020ADF808004FF4C870ADF80A0001A848
:10C850007ADF044600BF25463DB100BF0BA240F27F
:10C8600009112846FAF7D8FC00BF00BF3EBD000002
:10C870004D756C74695065726970686572616C5F42
:10C8800054656D706C617465000000002E2E5C2E86
:10C890002E5C2E2E5C557365725F4D6F64656C5C0B
:10C8A0006D6F64656C5F626C652E630070B50446E5
:10C8B0000D46288840F67721884210D1A888C01EEE
:10C8C0000D4908800D490E4A891AC908032242EA17
:10C8D000014009490B880A880AA103F09BFF2388BD
:10C8E00062880649064E891BC908042646EA0140AB
:10C8F0000BA103F08FFF70BD5C3F002034CD03001F
:10C9000054CC030044617461206C656E206973200F
:10C9100073657420746F20307825582825642900A9
:10C92000415454204D54552065786368616E6765A5
:10C9300020636F6D706C657465642E2063656E7422
:10C9400072616C2030782578207065726970686536
:10C9500072616C20307825780000000070B51149B4
:10C96000114802F048FD044600BF25463DB100BF16
:10C970000EA24FF44B712846FAF74EFC00BF00BFE1
:10C98000F721094802F028FD044600BF25463DB1C5
:10C9900000BF06A240F22F312846FAF73DFC00BF47
:10C9A00000BF70BDADC80200744300202E2E5C2E67
:10C9B0002E5C2E2E5C557365725F4D6F64656C5CEA
:10C9C0006D6F64656C5F626C652E630070B50546C3
:10C9D00015B14FF4064070BD1848007B18B1002017
:10C9E0001649087301E000F0DFF8144800780828C1
:10C9F0001DD2DFE800F01C04080C101C141800F015
:10CA00003FF8044616E000F0BDF8044612E000F0DE
:10CA100099F804460EE000F047F804460AE000F0FA
:10CA200035F9044606E000F043F9044602E048F216
:10CA30000E6400BF00BF2046CDE70000384E002046
:10CA40000D480089401C0C4908810020488008736B
:10CA500000BF0DE000EB8001084A12F8211009B96F
:10CA6000012200E0002204490A310A54411C88B224
:10CA70000228EFDB70470000384E0020104E0020E7
:10CA800010B5084800F036F840B900200549891E65
:10CA900008704880486041F61D5010BD00F072F8E3
:10CAA000FBE700003A4E002070B50F48458805EBC3
:10CAB00085000E4901EB8000C06878B904200A495E
:10CAC000087005EB8500094A02EB80000023012273
:10CAD0004168074802F064FF044602E000F090F865
